:10260000028A25008F828E83E0540100000070F85A
:102610002278FFE4F6D8FD028AB3900002EEF0A320
:10262000EFF07BFF7A527908C003C002C0017B0142
:102630007A007904A801AC02AD03D001D002D00326
:102640007E077F9F12427D9007A3E4F0A37406F0FB
:102650009007A5E4F0A3E4F09007A7E4F0A37402C8
:10266000F09007A5E0FEA3E0FF7C007D32123E2E35
:10267000AA06AB079007A3E0FEA3E0FF7C007D3233
:10268000123E2EEF2BFDEE3AFC900C1CE0FF7E324A
:10269000EF8EF0A4FFAEF0ED2FFFEC3EFEEF245FD7
:1026A000FFEE3401FE9007A9EEF0A3EFF09007AB28
:1026B000E4F0A3E4F07BFF7A5979A7C003C002C01D
:1026C000017B017A0779ADA801AC02AD03D001D03E
:1026D00002D0037E007F1A12427D7BFF7A5979C1B6
:1026E000C003C002C0017B017A0779C7A801AC0210
:1026F000AD03D001D002D0037E007F0B12427D7B60
:10270000FF7A5979CCC003C002C0017B017A0779F6
:10271000D2A801AC02AD03D001D002D0037E007F6D
:102720001412427D7BFF7A5979E0C003C002C001D8
:102730007B017A0779E6A801AC02AD03D001D00293
:10274000D0037E007F1012427D7BFF7A5979F0C062
:1027500003C002C0017B017A0779F6A801AC02AD83
:1027600003D001D002D0037E007F2A12427D7BFF7E
:102770007A5A791AC003C002C0017B017A08792015
:10278000A801AC02AD03D001D002D0037E007F1AB5
:1027900012427D7B017A0779E612B0D78F137B0155
:1027A0007A0779AD12B0D78F147B017A0779C712F7
:1027B000B0D78F157B017A0779D212B0D78F167BED
:1027C000017A0779F612B0D78F177B017A08792042
:1027D00012B0D78F187BFF7A5A7934C003C002C079
:1027E000017B017A08793AA801AC02AD03D001D08F
:1027F00002D0037E007F7612427D7B017A08793A0F
:10280000C003C002C0017BFF7A4F79819008B312E8
:1028100040E89008B6E4F0A3740AF09008B8E4F039
:10282000A37464F0D001D002D0031267187B017A40
:1028300008793A12B0D78F19900C1CE0FFEFC31340
:10284000FF7E009007A5EEF0A3EFF09007A5E0FE55
:10285000A3E0FFEF25E0FFEE33FE900C1CE0FD7CD3
:1028600000C3ED9FFFEC9EFED3EF9400EE9400407A
:102870000A9007A5E475F001123E409007A5E0FE1E
:10288000A3E0FF7C007D32123E2EAA06AB07900724
:10289000A3E0FEA3E0FF7C007D32123E2EEF2BFD75
:1028A000EE3AFC900C1CE0FF7E32EF8EF0A4FFAEFF
:1028B000F0ED2FFFEC3EFEEF242DFFEE3401FE90F5
:1028C00007A9EEF0A3EFF09007A5E0FEA3E0FF90CC
:1028D00007A3E0FCA3E0FDED2FFFEC3EFEEF240399
:1028E000FFEE3400FE9007A7EEF0A3EFF090000497
:1028F000740CF09007A5E0FEA3E0FF9007A3E0FCB6
:10290000A3E0FDAE05EE2FFF900C1CE0FEEF2EFFC6
:10291000EF2403FF900005EFF0900002E0FEA3E03B
:10292000FFEF8EF0124117292F000000003558905C
:1029300007ABE4F0A3E4F09000067402F090000707
:102940007401F0900C1CE0FF900008EFF0AF147ED3
:10295000008E0B8F0CE50C450B603EAF147E00C360
:10296000EF950CFFEE950BFE74AD2FF58274073ECC
:10297000F583E0FFAE14EEFD7C00C3ED950CFDEC9D
:10298000950BFC74092DF58274003CF583EFF0E59E
:102990000C150C7002150B80BC9007ABE475F0327F
:1029A000123E40750B00750C00750F0075100090FD
:1029B00007A3E0FEA3E0FFC3E5109FE50F9E4003E1
:1029C000022BAF7B017A0779C7C003C002C0017B2D
:1029D000FF7A4F79F59008B31240E89008B6E50FFA
:1029E000F0A3E510F0D001D002D0031267187511E2
:1029F000007512047B017A0779C712B0D78F159042
:102A000007ABE0FEA3E0FFAC0FAD108D828C8374AA
:102A1000321240ABE5822FF582E5833EF583E582F5
:102A20002406F582E5833400F5837402F09007AB49
:102A3000E0FEA3E0FFAC0FAD108D828C83743212E8
:102A400040ABE5822FF582E5833EF583E5822407DE
:102A5000F582E5833400F5837403F0AE0FAF107C8C
:102A6000007D03123E2E8E0D8F0EAE0FAF107C0038
:102A70007D03123E2EEF2402FFEE3400FED3E50E5E
:102A80009FE50D9E4003022B3BAE0BAF0C743D2F18
:102A9000F58274093EF583E0FF7E00EFB50E53EE3C
:102AA000B50D4FAE0BAF0C743D2FF58274093EF59A
:102AB00083E0FF9007ABE0FCA3E0FDE5122DFDE510
:102AC000113CFCAA0FAB108B828A8374321240AB8C
:102AD000E5822DF582E5833CF583E5822404F582C9
:102AE000E5833400F583EFF0050CE50C7002050B6F
:102AF00080369007ABE0FEA3E0FFE5122FFFE51163
:102B00003EFEAC0FAD108D828C8374321240ABE56B
:102B1000822FF582E5833EF583E5822404F582E584
:102B2000833400F58374FFF00512E512700205117D
:102B3000050EE50E7002050D022A6AAF157E008EA5
:102B40000D8F0EE50E450D605BAF157E00C3EF9552
:102B50000EFFEE950DFE74C72FF58274073EF583C8
:102B6000E0FBAE0FAF107C007D32123E2E9007AB23
:102B7000E0FCA3E0FDEF2DFFEE3CFEAD157C00EF89
:102B80002DFFEE3CFEC3EF950EFFEE950DFE740B90
:102B90002FF58274003EF583EBF0E50E150E700202
:102BA000150D809F0510E5107002050F0229AF90EA
:102BB00007A3E0FEA3E0FF7C007D32123E2E9007CB
:102BC000ABEE8FF0123E40750F007510009007A518
:102BD000E0FEA3E0FFC3E5109FE50F9E4003022F38
:102BE000569007ABE0FEA3E0FFAC0FAD108D828CDA
:102BF0008374321240ABE5822FF582E5833EF58384
:102C0000E5822406F582E5833400F5837402F090B2
:102C100007ABE0FEA3E0FFAC0FAD108D828C837498
:102C2000321240ABE5822FF582E5833EF583E582E3
:102C30002407F582E5833400F5837403F0E510255D
:102C4000E0FFE50F33FE743D2FF58274093EF583F6
:102C5000E0FFEF75F003A4241FF582E4340DF58343
:102C6000E0FF9007ABE0FCA3E0FDAA0FAB108B8266
:102C70008A8374321240ABE5822DF582E5833CF500
:102C800083E5822408F582E5833400F583EFF0E5DF
:102C90001025E0FFE50F33FE743D2FF58274093EE9
:102CA000F583E0FFEF75F003A42420F582E4340DF2
:102CB000F583E0FF9007ABE0FCA3E0FDAA0FAB10AB
:102CC0008B828A8374321240ABE5822DF582E583D4
:102CD0003CF583E5822409F582E5833400F583EF32
:102CE000F0E51025E0FFE50F33FE743D2FF582740B
:102CF000093EF583E0FFEF75F003A42421F582E49B
:102D0000340DF583E0FF9007ABE0FCA3E0FDAA0FD4
:102D1000AB108B828A8374321240ABE5822DF58230
:102D2000E5833CF583E582240AF582E5833400F5EA
:102D300083EFF0E5102401FFE50F3400FEEF25E0FE
:102D4000FFEE33FE900C1CE0FD7C00C3ED9FEC9E7B
:102D5000506CAF167E008E0D8F0EE50E450D700384
:102D6000022F4BAF167E00C3EF950EFFEE950DFEC2
:102D700074D22FF58274073EF583E0FBAE0FAF10DF
:102D80007C007D32123E2E9007ABE0FCA3E0FDEF0D
:102D90002DFFEE3CFEAD167C00EF2DFFEE3CFEC39A
:102DA000EF950EFFEE950DFE740B2FF58274003E2D
:102DB000F583EBF0E50E150E7002150D809C900763
:102DC000ABE0FEA3E0FFAC0FAD108D828C837432BC
:102DD0001240ABE5822FF582E5833EF583E5822440
:102DE00007F582E5833400F5837406F0E51025E0ED
:102DF000FFE50F33FE743E2FF58274093EF583E044
:102E0000FFEF75F003A4241FF582E4340DF583E091
:102E1000FF9007ABE0FCA3E0FDAA0FAB108B828A0A
:102E20008374321240ABE5822DF582E5833CF58355
:102E3000E582240BF582E5833400F583EFF0E5109D
:102E400025E0FFE50F33FE743E2FF58274093EF551
:102E500083E0FFEF75F003A42420F582E4340DF540
:102E600083E0FF9007ABE0FCA3E0FDAA0FAB108B63
:102E7000828A8374321240ABE5822DF582E5833C71
:102E8000F583E582240CF582E5833400F583EFF0C9
:102E9000E51025E0FFE50F33FE743E2FF58274093F
:102EA0003EF583E0FFEF75F003A42421F582E434BE
:102EB0000DF583E0FF9007ABE0FCA3E0FDAA0FABAC
:102EC000108B828A8374321240ABE5822DF582E545
:102ED000833CF583E582240DF582E5833400F58398
:102EE000EFF0AF167E008E0D8F0EE50E450D605B88
:102EF000AF167E00C3EF950EFFEE950DFE74D22F38
:102F0000F58274073EF583E0FBAE0FAF107C007DC9
:102F100032123E2E9007ABE0FCA3E0FDEF2DFFEE5A
:102F20003CFEAD167C00EF2DFFEE3CFEC3EF950E90
:102F3000FFEE950DFE740E2FF58274003EF583EBC7
:102F4000F0E50E150E7002150D809F0510E510704E
:102F500002050F022BCD9007A5E0FEA3E0FF7C0049
:102F60007D32123E2E9007ABEE8FF0123E407B0179
:102F70007A0779E6C003C002C0017BFF7A5079016D
:102F80009008B31240E89007A7E0FEA3E0FFEF240B
:102F9000FFFFEE34FFFE9008B6EEF0A3EFF0D00195
:102FA000D002D0031267187B017A0779E612B0D7F6
:102FB0008F139007ABE0FEA3E0FF74062FF5827439
:102FC000003EF5837402F09007ABE0FEA3E0FF74CF
:102FD000072FF58274003EF5837401F09008E5E058
:102FE000FF9007ABE0FCA3E0FD74082DF5827400B0
:102FF0003CF583EFF0AF137E008E0B8F0CE50C4594
:103000000B604CAF137E00C3EF950CFFEE950BFEEB
:1030100074E62FF58274073EF583E0FFAE13EEFDF4
:103020007C009007ABE0FAA3E0FBED2BFDEC3AFC53
:10303000C3ED950CFDEC950BFC74092DF582740025
:103040003CF583EFF0E50C150C7002150B80AE908B
:1030500007ABE475F032123E40750B00750C009022
:103060000C1CE0FF7E00C3E50C9FE50B9E400302B5
:1030700033217B017A0779F6C003C002C0017BFFD0
:103080007A5079119008B31240E89007A7E0FEA3A8
:10309000E0FFEF250CFFEE350BFE9008B6EEF0A337
:1030A000EFF0AE0BAF0C743D2FF58274093EF58343
:1030B000E0FF7E009008B8EEF0A3EFF0D001D00260
:1030C000D0031267187B017A0779F612B0D78F17F1
:1030D0009007ABE0FEA3E0FFAC0BAD0C8D828C83C0
:1030E00074321240ABE5822FF582E5833EF583E52D
:1030F000822406F582E5833400F5837402F090079C
:10310000ABE0FEA3E0FFAC0BAD0C8D828C83743280
:103110001240ABE5822FF582E5833EF583E58224FC
:1031200007F582E5833400F5837405F0AE0BAF0C30
:10313000743D2FF58274093EF583E0FFEF75F005CD
:10314000A424E8F582E43408F583E0FF9007ABE0BF
:10315000FCA3E0FDAA0BAB0C8B828A837432124075
:10316000ABE5822DF582E5833CF583E5822408F505
:1031700082E5833400F583EFF0AE0BAF0C743D2F86
:10318000F58274093EF583E0FFEF75F005A424E9AC
:10319000F582E43408F583E0FF9007ABE0FCA3E0A0
:1031A000FDAA0BAB0C8B828A8374321240ABE58292
:1031B0002DF582E5833CF583E5822409F582E583DC
:1031C0003400F583EFF0AE0BAF0C743D2FF5827435
:1031D000093EF583E0FFEF75F005A424EAF582E4EB
:1031E0003408F583E0FF9007ABE0FCA3E0FDAA0BF9
:1031F000AB0C8B828A8374321240ABE5822DF58250
:10320000E5833CF583E582240AF582E5833400F505
:1032100083EFF0AE0BAF0C743D2FF58274093EF5D1
:1032200083E0FFEF75F005A424EBF582E43408F5A4
:1032300083E0FF9007ABE0FCA3E0FDAA0BAB0C8B97
:10324000828A8374321240ABE5822DF582E5833C9D
:10325000F583E582240BF582E5833400F583EFF0F6
:10326000AE0BAF0C743D2FF58274093EF583E0FF81
:10327000EF75F005A424ECF582E43408F583E0FF53
:103280009007ABE0FCA3E0FDAA0BAB0C8B828A831A
:1032900074321240ABE5822DF582E5833CF583E57F
:1032A00082240CF582E5833400F583EFF0AF177EBE
:1032B000008E0D8F0EE50E450D605BAF177E00C3CF
:1032C000EF950EFFEE950DFE74F62FF58274073E16
:1032D000F583E0FBAE0BAF0C7C007D32123E2E90EE
:1032E00007ABE0FCA3E0FDEF2DFFEE3CFEAD177C4D
:1032F00000EF2DFFEE3CFEC3EF950EFFEE950DFEA9
:10330000740D2FF58274003EF583EBF0E50E150E7B
:103310007002150D809F050CE50C7002050B023044
:103320005F900C1CE0FF7E32EF8EF0A4FFAEF090B9
:1033300007ABEE8FF0123E407B017A087920C00384
:10334000C002C0017BFF7A50792C9008B31240E88C
:10335000900C1CE0FF7E009007A7E0FCA3E0FDEFCF
:103360002DFFEE3CFE9008B6EEF0A3EFF0D001D0BA
:1033700002D0031267189007ABE0FEA3E0FF7406CB
:103380002FF58274003EF583E4F09007ABE0FEA3D6
:10339000E0FF74072FF58274003EF5837401F0900E
:1033A00008E7E0FF9007ABE0FCA3E0FD74082DF513
:1033B0008274003CF583EFF09008E7E0FFEF1240E5
:1033C000F133CE0033F401341A020000343E7B01A5
:1033D0007A087920C003C002C0017BFF7A5079418E
:1033E0009008B31240E8D001D002D00312A0F575C6
:1033F000181A804A7B017A087920C003C002C001F4
:103400007BFF7A5079479008B31240E8D001D00290
:10341000D00312A0F575181980247B017A08792051
:10342000C003C002C0017BFF7A50794C9008B312F0
:1034300040E8D001D002D00312A0F575181AAF18D9
:103440007E008E0B8F0CE50C450B604CAF187E0098
:10345000C3EF950CFFEE950BFE74202FF5827408D8
:103460003EF583E0FFAE18EEFD7C009007ABE0FA7E
:10347000A3E0FBED2BFDEC3AFCC3ED950CFDEC95C8
:103480000BFC74092DF58274003CF583EFF0E50C1C
:10349000150C7002150B80AEAF187E009007ABE0E4
:1034A000FCA3E0FDEF2DFFEE3CFE74092FF58274C6
:1034B000003EF5837401F09007ABE475F032123EE4
:1034C00040AF197E008E0B8F0CE50C450B604CAFA6
:1034D000197E00C3EF950CFFEE950BFE743A2FF5A5
:1034E0008274083EF583E0FFAE19EEFD7C00900784
:1034F000ABE0FAA3E0FBED2BFDEC3AFCC3ED950C41
:10350000FDEC950BFC74062DF58274003CF583EF01
:10351000F0E50C150C7002150B80AE7B017A00797A
:10352000049007A9E0FEA3E0FFEF14FD12A9AC9000
:1035300007A9E0FCA3E0FD74032DF58274003CF5BF
:1035400083EFF07B017A0079049007A9E0FCA3E007
:10355000FD129D0A12AD56229007A7E0FEA3E0FFE0
:10356000EF24FFFFEE34FFFE900002E0FCA3E0FD3D
:10357000C3ED9FEC9E500302383C900C1CE0FF7E94
:10358000009007A7E0FCA3E0FDEF2DFFEE3CFE90CE
:103590000002E0FCA3E0FDEFB5050FEEB5040B90D3
:1035A0000D59E0FF900951EFF0229007A7E0FEA32C
:1035B000E0FFEF24FFFFEE34FFFE900002E0FCA3EB
:1035C000E0FDEFB5050FEEB5040B900D59E0FF904F
:1035D000094FEFF022900D59E0FF9007A7E0FCA300
:1035E000E0FD900002E0FAA3E0FBC3EB9DFDEA9C46
:1035F000FC743D2DF58274093CF583E0FEEE75F018
:1036000005A42452F582E43409F583EFF0900D5AB5
:10361000E0FF9007A7E0FCA3E0FD900002E0FAA322
:10362000E0FBC3EB9DFDEA9CFC743D2DF582740923
:103630003CF583E0FEEE75F005A42453F582E434F6
:1036400009F583EFF0900D5BE0FF9007A7E0FCA386
:10365000E0FD900002E0FAA3E0FBC3EB9DFDEA9CD5
:10366000FC743D2DF58274093CF583E0FEEE75F0A7
:1036700005A42454F582E43409F583EFF0900D5C41
:10368000E0FF9007A7E0FCA3E0FD900002E0FAA3B2
:10369000E0FBC3EB9DFDEA9CFC743D2DF5827409B3
:1036A0003CF583E0FEEE75F005A42455F582E43484
:1036B00009F583EFF0900D5DE0FF9007A7E0FCA314
:1036C000E0FD900002E0FAA3E0FBC3EB9DFDEA9C65
:1036D000FC743D2DF58274093CF583E0FEEE75F037
:1036E00005A42456F582E43409F583EFF09010DC4C
:1036F000E4F0A37401F0750B00750C00900C1CE055
:10370000FF7E00C3E50C9FE50B9E4003023832AEFE
:103710000BAF0C743D2FF58274093EF583E0FFEF8B
:1037200075F005A42453F582E43409F583E0FFEF36
:1037300075F006A4FFAC0BAD0C743D2DF582740939
:103740003CF583E0FEEE75F005A42452F582E434E6
:1037500009F583E0FEEE75F006A4FEEE2FFFAC0B3C
:10376000AD0C743D2DF58274093CF583E0FEEE75D9
:10377000F005A42454F582E43409F583E0FEEE75E7
:10378000F006A4FEEE2FFFAC0BAD0C743D2DF582C0
:1037900074093CF583E0FEEE75F005A42455F5822E
:1037A000E43409F583E0FEEEC454F0FEEE2FFFACE6
:1037B0000BAD0C743D2DF58274093CF583E0FEEEF3
:1037C00075F005A42456F582E43409F583E0FEEE95
:1037D00025E0FEEE2FFFEF2402FF7E00AC0BAD0CC8
:1037E000743D2DF58274093CF583E0FDED25E02460
:1037F00050F582E43410F583EEF0A3EFF0AE0BAF9A
:103800000C743D2FF58274093EF583E0FFEF25E04F
:103810002450F582E43410F583E0FEA3E0FF90101D
:10382000DCEE8FF0123E40050CE50C7002050B0239
:1038300036FC9010DCE475F001123E4022023C0F91
:10384000E86480F8E933E83360110460F0ED33ECAC
:10385000337009E8FCE9FDEAFEEBFF220460DED3E9
:10386000EB9FEA9EE99DE8C2E78CF0C2F795F04035
:103870000CE8CCF8E9CDF9EACEFAEBCFFB123BDA53
:1038800085D0F05804700320D5B3E80470075002C7
:10389000B2D5023C1992D5EC0460F7E4CCC0E0C389
:1038A00098F8603B94186008400DD0E0FB023BF1B3
:1038B000E4FBFAC9FC8028E830E406E4C9FBE4CA6A
:1038C000FCE830E305E4C9CACBFCE854076010F813
:1038D000C3E913F9EA13FAEB13FBEC13FCD8F1304C
:1038E000F52FC3E49CFCEF9BFFEE9AFEED99FDD013
:1038F000E0FBEF4E4D4C701222DB03023C16EC2C29
:10390000FCEF33FFEE33FEED33FDED30E7EB023B32
:10391000F1EF2BFFEE3AFEED39FDD0E0FB50130B3B
:10392000BB0003023C19ED13FDEE13FEEF13FFEC99
:1039300013FC023BF1EC4D6011E8497017ED33ECDC
:103940003304600DE4FCFFFEFD22E933E83304702C
:10395000F8023C0F123BDA58046009E4CC24815091
:1039600006285009023C19284003023C16C0E0EB2F
:103970004A7044B98006D0E0FB023C05EF4E701C53
:10398000BD8008EBFFEAFEE9FD80EBE98DF0A4FEC7
:10399000E5F0023A1EE9CDF9EAFEEBFFEF89F0A46B
:1039A000FCE5F0CE89F0A42EFFE435F0CD89F0A43B
:1039B0002DFEE435F08067EF4E7005BD80D780C3E3
:1039C000EF8BF0A4ACF0EE8BF0A42CFCE435F0F817
:1039D000EF8AF0A42CE5F038FCE433CB8DF0A42C76
:1039E000FCE5F03BF8EE8AF0A42CFCE5F038F8E4B6
:1039F00033CF89F0A42CFCE5F038CF3400CE89F029
:103A0000A42FFFE5F03EFEE433C98DF0A42EFEE5C1
:103A1000F039CD8AF0A42FFFE5F03EFEE43DFD3302
:103A2000D0E0FB50070BBB000F023C19EC2CFCEF65
:103A300033FFEE33FEED33FD023BF1023C19EC5D4A
:103A4000046005E859047003023C0F123BDA580485
:103A500060F6EC4860F2EC7004FDFEFF22C860DB0B
:103A60002481C85009C39860025006023C16985041
:103A7000CAF582E9294B4A7005AB82023C0575F014
:103A8000007C1A7880C3EF9BEE9AED99400DC3EF4E
:103A90009BFFEE9AFEED99FDE842F0DC23ACF0D0FE
:103AA000E0FFD0E0FED0E0FDAB8220E7101BEB6032
:103AB000BAEC2CFCEF33FFEE33FEED33FD023BF1AD
:103AC000E803F830E705C0F075F000EF2FFFEE33A4
:103AD000FEED33FD40B830E7C280AA74F8CC6480B4
:103AE000CCC86480C8F58204604FC3EB9FF5F0EA50
:103AF0009E42F0E99D42F0E89C45F0603C501DE597
:103B0000825FFFE582D313CB5BCBF42B5582FB5056
:103B1000280ABA002409B9002008801DE5825BFB51
:103B2000E582D313CF5FCFF4C3132F5582FF500923
:103B30000EBE00050DBD00010CC3EB9FF5F0EA9E23
:103B400042F0E99D42F0E89C45F06007CC4820E750
:103B500001B3EC22ED33EC33600A047003BD800442
:103B6000ECB2E7FC2275F020800E75F01080057530
:103B7000F0087D007E007F003392D530D503123FE0
:103B8000D4EC334010EF33FFEE33FEED33FDEC3376
:103B9000FCD5F0ED22E5F0247EA2D513CC92E7CD42
:103BA000CEFF22EDD2E7CD33EC3392D5248140060F
:103BB000E4FFFEFDFC22FCE4CFCECDCC24E050118E
:103BC00074FF80EDC3CC13CCCD13CDCE13CECF1369
:103BD000CF0470F030D5DE023FD4E9D2E7C933E834
:103BE00033F892D5EDD2E7CD33EC33FC5002B2D5A9
:103BF00022EC30E7100FBF000C0EBE00080DBD0018
:103C0000040BEB6014A2D5EB13FCED92E7FD2274DC
:103C1000FFFCFDFEFF22E480F8A2D574FF13FC7DBB
:103C200080E480EFF920E73624F950037907E4F4C3
:103C30002402FBE582158270021583DBF6E024FB8B
:103C4000501BE96014E4F0E582158270021583E0F0
:103C500004F0B40A08E4F0D9EE7401F00A22C2D5E7
:103C600022ED33EC3392D5FA602AB4FF33EDC2E78C
:103C70007BFF60067A3C7986E4227A3C798F20D5F6
:103C8000047A3C798A224E614E002B494E46002D23
:103C9000494E4600E47A08F0A3DAFC7B0074072260
:103CA000C083C082ECC0E0EDC0E0EEC0E0EFC0E059
:103CB000EA75F010A4CAABF075F04DA42BFBE43507
:103CC000F0FCEA2410FAEB34C5FBEC34D9FCEDC26D
:103CD000E7FF75F056A4F42411C5F0F434C58FF055
:103CE000A42AE5F03BE43CF020E714123D96D0E036
:103CF000FFD0E0FED0E0FDD0E0FC123A3E8014F4AC
:103D000004123D96D0E0FFD0E0FED0E0FDD0E0FC14
:103D1000123935D082D083E0FAEDD2E7CD33EC33DF
:103D20002482FBE4C3CF33CFCE33CECD33CD33DBD0
:103D3000F37B0775F00A846004F0A31B0AE5F0F03A
:103D4000A38FF0740AA4FFACF08EF0740AA42CFECA
:103D5000ACF050010C8DF0740AA42CFDE435F0F0A9
:103D6000A3DBDE7407223F8000004120000042C830
:103D70000000447A0000461C400047C350004974CC
:103D800024004B1896804CBEBC205A0E1BCA6753A9
:103D9000C21C749DC5AEFB60065407601C23231231
:103DA0003DC4EB54386009123DB0123DBF123935A5
:103DB000ECF8EDF9EEFAEFCB22EB123DBF80F154B7
:103DC0003803241C903D66FE93FC0EEE93FD0EEE30
:103DD000930ECE93FF22BB010689828A83E0225094
:103DE00002E722BBFE02E32289828A83E49322BB9C
:103DF000010CE58229F582E5833AF583E02250063D
:103E0000E92582F8E622BBFE06E92582F8E222E5F2
:103E10008229F582E5833AF583E49322BB01068982
:103E2000828A83F0225002F722BBFE01F322EF8D3B
:103E3000F0A4A8F0CF8CF0A428CE8DF0A42EFE2202
:103E4000C5F0F8A3E028F0C5F0F8E582158270020D
:103E50001583E038F022BB010A89828A83F0E5F0FD
:103E6000A3F0225006F709A7F01922BBFE06F3E5DE
:103E7000F009F31922EF2BFFEE3AFEED39FDEC3895
:103E8000FC22C3EF9BFFEE9AFEED99FDEC98FC221D
:103E9000E88FF0A4CC8BF0A42CFCE98EF0A42CFCD1
:103EA0008AF0EDA42CFCEA8EF0A4CDA8F08BF0A44F
:103EB0002DCC3825F0FDE98FF0A42CCD35F0FCEBAE
:103EC0008EF0A4FEA9F0EB8FF0A4CFC5F02ECD3973
:103ED000FEE43CFCEAA42DCE35F0FDE43CFC22756A
:103EE000F008758200EF2FFFEE33FECD33CDCC33DB
:103EF000CCC58233C5829BED9AEC99E58298400C43
:103F0000F582EE9BFEED9AFDEC99FC0FD5F0D6E420
:103F1000CEFBE4CDFAE4CCF9A88222B800C1B90006
:103F200059BA002DEC8BF084CFCECDFCE5F0CBF967
:103F30007818EF2FFFEE33FEED33FDEC33FCEB335F
:103F4000FB10D703994004EB99FB0FD8E5E4F9FA8D
:103F5000227818EF2FFFEE33FEED33FDEC33FCC972
:103F600033C910D7059BE99A4007EC9BFCE99AF905
:103F70000FD8E0E4C9FAE4CCFB2275F010EF2FFF74
:103F8000EE33FEED33FDCC33CCC833C810D7079BDE
:103F9000EC9AE899400AED9BFDEC9AFCE899F80F41
:103FA000D5F0DAE4CDFBE4CCFAE4C8F922EF5BFF0C
:103FB000EE5AFEED59FDEC58FC22EF4BFFEE4AFEA7
:103FC000ED49FDEC48FC22CFF4CFCEF4CECDF4CDBC
:103FD000CCF4CC22C3E49FFFE49EFEE49DFDE49C70
:103FE000FC22EB9FF5F0EA9E42F0E99D42F0E89C4E
:103FF00045F022E8600FECC313FCED13FDEE13FE59
:10400000EF13FFD8F122E86010ECA2E713FCED13E8
:10401000FDEE13FEEF13FFD8F022E8600FEFC3337D
:10402000FFEE33FEED33FDEC33FCD8F122BB01078C
:1040300089828A830240675005E9F802438EBBFEFD
:1040400005E9F802439A89828A830243A6BB0107E5
:1040500089828A8302409F5005E9F80243E0BBFE53
:1040600005E9F80243EC22E0FCA3E0FDA3E0FEA397
:10407000E0FF22E0F8A3E0F9A3E0FAA3E0FB22BB13
:10408000010789828A830240735005E9F80243B62A
:10409000BBFE05E9F80243C389828A830243D0EC60
:1040A000F0A3EDF0A3EEF0A3EFF022F5F0C582A4AB
:1040B000C582C5F0C583A42583F58322A42582F596
:1040C00082E5F03583F58322E0FBA3E0FAA3E0F973
:1040D00022F8E0FBA3A3E0F925F0F0E58215827059
:1040E000021583E0FA38F022EBF0A3EAF0A3E9F03E
:1040F00022D083D082F8E4937012740193700DA3E0
:10410000A393F8740193F5828883E473740293682F
:1041100060EFA3A3A380DFD083D082F8E493701272
:10412000740193700DA3A393F8740193F5828883AF
:10413000E473740293B5F0067403936860E9A3A373
:10414000A3A380D8E5292582F582E5283583F58368
:10415000B528048582292210AF06858229F52822F8
:10416000858229F528D2AF22EC8EF0A4CCC5F0CC04
:10417000CDF8EFA4CEC5F02DFDE43CFCE8A42EC89C
:10418000C5F03DFDE43CFCEFA4FFE5F028FEE43D76
:10419000FDE43CFC22EF4E6012EF60010EEDBB012E
:1041A0000B89828A83F0A3DFFCDEFA2289F05007B4
:1041B000F709DFFCA9F022BBFEFCF309DFFCA9F044
:1041C00022E709F608DFFA8046E709F208DFFA80FD
:1041D0003E88828C83E709F0A3DFFA8032E309F698
:1041E00008DFFA806EE309F208DFFA806688828CC5
:1041F00083E309F0A3DFFA805A89828A83E0A3F679
:1042000008DFFA804E89828A83E0A3F208DFFA8011
:104210004280D280FA80C680D4805580F280298086
:104220001080A680EA809A80A880DA80E280CA8026
:104230002988848C8589828A83E493A30586F0A3E8
:104240000586DFF5DEF3800B89828A83E493A3F68B
:1042500008DFF9ECFAA9F0EDFB2288848C858982CD
:104260008A83E0A30586F0A30586DFF6DEF480E30B
:1042700089828A83E493A3F208DFF980D688F0EF7D
:1042800060010E4E60CD88F0ED2402B4040050C3EE
:10429000F582EB2402B4040050B923234582239015
:1042A000421173E709F60870FA8046E709F20870D0
:1042B000FA803E88828C83E709F0A370FA8074E369
:1042C00009F60870FA806CE309F20870FA806488D5
:1042D000828C83E309F0A370FA805889828A83E094
:1042E000A3F60870FA804C89828A83E0A3F20870F2
:1042F000FA804080D280FA80C680D4805180F280DB
:1043000027801080A680EA809A80A880DA80E280E8
:10431000CA802788848C8589828A83E493A3058652
:10432000F0A3058670F5800B89828A83E493A3F657
:104330000870F9ECFAA9F0EDFB2288848C8589825B
:104340008A83E0A30586F0A3058670F680E589825E
:104350008A83E493A3F20870F980D888F0ED2402F0
:10436000B4040050CEF582EB2402B4040050C42300
:10437000234582239042F373A3F8E0C5F025F0F0C3
:10438000E582158270021583E0C838F0E822E6FC69
:1043900008E6FD08E6FE08E6FF22E2FC08E2FD086A
:1043A000E2FE08E2FF22E493FC740193FD740293A1
:1043B000FE740393FF22E6FB08E6F908E6FA08E636
:1043C000CBF822E2FB08E2F908E2FA08E2CBF82295
:1043D000E493F8740193F9740293FA740393FB2243
:1043E000ECF608EDF608EEF608EFF622ECF208ED32
:1043F000F208EEF208EFF22290000CEEF0A3EFF0DC
:1044000090000EE4F07F007E007D007C0090005D57
:1044100012409F900C1CE0FFEF64016003024F808C
:1044200090000CE0FEA3E0FF9008E875F005EF12A5
:1044300040BCEE75F005A42583F583E0FFEF700B1B
:1044400090000CE0FEA3E0FF12826F90000CE0FEF3
:10445000A3E0FF9008E975F005EF1240BCEE75F09F
:1044600005A42583F583E0FFEF700B90000CE0FEC0
:10447000A3E0FF1283CA900D1B12407390107212BA
:104480004067123E82E4123B657B007A247974789F
:1044900049123A3E90005D12409F90000CE0FEA34E
:1044A000E0FF90107675F006EF1240BCEE75F00656
:1044B000A42583F583E0FF7E0090000FEEF0A3EFCC
:1044C000F090000CE0FEA3E0FF90107775F006EF8F
:1044D0001240BCEE75F006A42583F583E0FFEFFDE6
:1044E0007C0090000FE0FEA3E0FFEF7F00FEEE4CAB
:1044F000FCEF4DFDEC123B6A90002112409F9000B2
:104500000CE0FEA3E0FF90107875F006EF1240BCBF
:10451000EE75F006A42583F583E0FF7E0090000F82
:10452000EEF0A3EFF090000CE0FEA3E0FF90107916
:1045300075F006EF1240BCEE75F006A42583F583F6
:10454000E0FFEFFD7C0090000FE0FEA3E0FFEF7FB7
:1045500000FEEE4CFCEF4DFDEC123B6A9000251284
:10456000409F90000CE0FEA3E0FF90107A75F006EB
:10457000EF1240BCEE75F006A42583F583E0FF7EC4
:104580000090000FEEF0A3EFF090000CE0FEA3E02F
:10459000FF90107B75F006EF1240BCEE75F006A49C
:1045A0002583F583E0FFEFFD7C0090000FE0FEA384
:1045B000E0FFEF7F00FEEE4CFCEF4DFDEC123B6A9E
:1045C00090002912409F7F007E007D007C009000BB
:1045D0003D12409F90000CE0FEA3E0FF900CB575EB
:1045E000F006EF1240BCEE75F006A42583F583E0DB
:1045F000FF7E0090000FEEF0A3EFF090000CE0FEC5
:10460000A3E0FF900CB675F006EF1240BCEE75F01B
:1046100006A42583F583E0FFEFFD7C0090000FE00A
:10462000FEA3E0FFEF7F00FEEE4CFCEF4DFDEC1231
:104630003B6A7B547AA0790B783912393590004166
:1046400012409F90004112406712B21E7BA67A0A68
:104650007986783E123ADB6010400E7F007E007D46
:10466000007C0090004112409F90000CE0FEA3E00F
:10467000FF900CB775F006EF1240BCEE75F006A483
:104680002583F583E0FF7E0090000FEEF0A3EFF0AE
:1046900090000CE0FEA3E0FF900CB875F006EF125E
:1046A00040BCEE75F006A42583F583E0FFEFFD7CAA
:1046B0000090000FE0FEA3E0FFEF7F00FEEE4CFC59
:1046C000EF4DFDEC123B6A7B547AA0790B783912DE
:1046D000393590004512409F90004512406712B254
:1046E0001E7BA67A0A7986783E123ADB6010400E6D
:1046F0007F007E007D007C0090004512409F90006E
:104700000CE0FEA3E0FF900CB975F006EF1240BC80
:10471000EE75F006A42583F583E0FF7E0090000F80
:10472000EEF0A3EFF090000CE0FEA3E0FF900CBAD7
:1047300075F006EF1240BCEE75F006A42583F583F4
:10474000E0FFEFFD7C0090000FE0FEA3E0FFEF7FB5
:1047500000FEEE4CFCEF4DFDEC123B6A7B547AA060
:10476000790B783912393590004912409F900049F1
:1047700012406712B21E7BA67A0A7986783E123AF8
:10478000DB6010400E7F007E007D007C00900049C1
:1047900012409F7B017A007921128B42900CA51266
:1047A000406790004D12409F900CA9124067900006
:1047B0005112409F900CAD12406790005512409FDF
:1047C000900CB112406790005912409F9000551212
:1047D000406790004D124073123935C004C005C0C7
:1047E00006C00790005912406790005112407312A2
:1047F0003935D003D002D001D0001238407B007A86
:104800000079007840123935900021124073123837
:1048100040C004C005C006C0079000551240671292
:104820003B54A804A905AA06AB07D007D006D005BB
:10483000D004123935C004C005C006C00790005925
:10484000124067900055124073123935C004C005FC
:10485000C006C00790005112406790004D1240738F
:10486000123935A804A905AA06AB07D007D006D08F
:1048700005D0041238447B007A0079007840123960
:104880003590002512407312384090005112407349
:10489000123935A804A905AA06AB07D007D006D05F
:1048A00005D0041238447B827A5179C3784012399A
:1048B0003590002D12409F9000591240679000558E
:1048C000124073123935C004C005C006C0079000FD
:1048D0005112406790004D124073123935A804A957
:1048E00005AA06AB07D007D006D005D0041238447D
:1048F0007B007A007900784012393590002512400B
:104900007312384090004D124073123935C004C004
:1049100005C006C00790005512406790004D124038
:1049200073123935C004C005C006C0079000591283
:104930004067900051124073123935D003D002D035
:1049400001D0001238407B007A007900784012399B
:104950003590002112407312384090005912407374
:10496000123935A804A905AA06AB07D007D006D08E
:1049700005D004123844C004C005C006C00790002A
:1049800051124067900051124073123935A804A9A2
:1049900005AA06AB077F007E007D007C3F123840F1
:1049A000C004C005C006C0079000551240679000C3
:1049B00055124073123935A804A905AA06AB07D0D1
:1049C00007D006D005D0041238407B007A00790069
:1049D0007840123935900029124073123840C004D3
:1049E000C005C006C0077F007E007D007C409000AF
:1049F00051124073123935A804A905AA06AB07D095
:104A000007D006D005D004123935A804A905AA0696
:104A1000AB07D007D006D005D0041238407B827A8D
:104A20005179C3784012393590003112409F90007F
:104A30005512406790004D124073123935C004C0C2
:104A400005C006C0079000591240679000511240FF
:104A500073123935D003D002D001D0001238407B18
:104A6000007A0079007840123935900021124073A5
:104A7000123840C004C005C006C00790004D124067
:104A800067123B54A804A905AA06AB07D007D006B5
:104A9000D005D004123935C004C005C006C0079047
:104AA0000059124067900055124073123935C00406
:104AB000C005C006C00790005112406790004D121B
:104AC0004073123935A804A905AA06AB07D007D050
:104AD00006D005D0041238447B007A007900784073
:104AE0001239359000251240731238409000591247
:104AF0004073123935A804A905AA06AB07D007D020
:104B000006D005D004123844C004C005C006C00752
:104B1000900051124067900051124073123935A82D
:104B200004A905AA06AB077F007E007D007C3F122A
:104B30003840C004C005C006C00790005512406749
:104B4000900055124073123935A804A905AA06AB86
:104B500007D007D006D005D0041238407B007A0079
:104B6000790078401239359000291240731238408C
:104B7000C004C005C006C0077F007E007D007C40E9
:104B8000900055124073123935A804A905AA06AB46
:104B900007D007D006D005D004123935A804A905DE
:104BA000AA06AB07D007D006D005D0041238407B48
:104BB000827A5179C3784012393590003512409F7E
:104BC000900059124067900055124073123935C059
:104BD00004C005C006C00790005112406790004D08
:104BE000124073123935A804A905AA06AB07D007ED
:104BF000D006D005D0041238447B007A00790078C2
:104C000040123935900025124073123840900055FB
:104C1000124073123935C004C005C006C0079000A9
:104C20005512406790004D124073123935C004C0D0
:104C300005C006C00790005912406790005112400D
:104C400073123935D003D002D001D0001238407B26
:104C5000007A0079007840123935900021124073B3
:104C6000123840900051124073123935A804A9053A
:104C7000AA06AB07D007D006D005D0041238447B73
:104C8000827A5179C3784012393590003912409FA9
:104C9000900045124067900055124073123935C09C
:104CA00004C005C006C00790004112406790005143
:104CB000124073123935A804A905AA06AB07D0071C
:104CC000D006D005D004123844C004C005C006C0C8
:104CD000079000491240679000591240731239350D
:104CE000A804A905AA06AB07D007D006D005D004B2
:104CF000123844123B547B007A007900783F123915
:104D00003590002D12407312384090001112409FD0
:104D1000900045124067900059124073123935C017
:104D200004C005C006C007900049124067900055B6
:104D3000124073123935D003D002D001D00012389E
:104D400040C004C005C006C00790004112406790F3
:104D5000004D124073123935A804A905AA06AB0705
:104D6000D007D006D005D0041238447B007A0079F1
:104D700000783F123935900031124073123840905C
:104D8000001512409F900049124067900051124058
:104D900073123935C004C005C006C0079000411227
:104DA0004067900059124073123935D003D002D0B9
:104DB00001D000123840C004C005C006C0079000F2
:104DC0004512406790004D124073123935A804A96E
:104DD00005AA06AB07D007D006D005D00412384488
:104DE0007B007A007900783F123935900035124007
:104DF0007312384090001912409F90004112406792
:104E0000900055124073123935C004C005C006C069
:104E100007900045124067900051124073123935D7
:104E2000D003D002D001D000123840C004C005C069
:104E300006C00790004912406790004D124073125F
:104E40003935A804A905AA06AB07D007D006D005B6
:104E5000D0041238447B007A007900783F1239354B
:104E600090003912407312384090001D12409F90FC
:104E7000004D124067C004C005C006C00790005D29
:104E8000124067900011124073123935A804A90529
:104E9000AA06AB07D007D006D005D004123844903C
:104EA000004D12409F900051124067C004C005C0E1
:104EB00006C00790005D1240679000151240731203
:104EC0003935A804A905AA06AB07D007D006D00536
:104ED000D00412384490005112409F900055124067
:104EE00067C004C005C006C00790005D124067900F
:104EF0000019124073123935A804A905AA06AB0798
:104F0000D007D006D005D004123844900055124086
:104F10009F900059124067C004C005C006C00790AA
:104F2000005D12406790001D124073123935A804CD
:104F3000A905AA06AB07D007D006D005D0041238C1
:104F40004490005912409F7B017A00794D127E0EE9
:104F500090004D124067900CA512409F9000511296
:104F60004067900CA912409F900055124067900C2A
:104F7000AD12409F900059124067900CB112409FB3
:104F80002230202D3E204E6F6E650A31202D3E20AE
:104F90004C6F77202825752075732064656C6179C6
:104FA00020666F72206561636820382D6269742005
:104FB00072656769737465722072656164290A326B
:104FC000202D3E20486967682028257520757320AC
:104FD00064656C617920666F722065616368203852
:104FE0002D626974207265676973746572207265D9
:104FF0006164290A00506F72742025752049443A73
:10500000002575202D204465766963652049443A62
:10501000002575202D20494D5520256420636F6E95
:1050200066696775726174696F6E3A002575202D27
:105030002053504920726561642064656C61793A3F
:1050400000204E6F6E6500204C6F77002048696726
:105050006800000D0A004669726D776172652076FE
:10506000657273696F6E3A2000494D55626F6172C7
:1050700064207620312E342E31000D0A0D0A0044B2
:10508000455649434520494E464F0D0A0049443A8A
:105090002025640D0A004C6F7720706173732066C1
:1050A000696C746572206672657175656E637920CE
:1050B000666F7220616363656C65726F6D657465A0
:1050C00072733A20313020487A0D0A00494D55203C
:1050D000436F6E6E65637465643A2025640D0A0043
:1050E000494D557320434F4E464947555241544907
:1050F0004F4E0D0A00496D75202564200D0A09499F
:10510000443A2025640D0A0009416363656C6572A9
:105110006F6D65746572733A20005945530D0A002E
:105120004E4F0D0A00094779726F73636F70657394
:105130003A2000094D61676E65746F6D6574657224
:10514000733A2000095175617465726E696F6E3A29
:1051500020000954656D70657261747572653A203E
:105160000054696D65206265747765656E2074779B
:105170006F2072656164696E67206379636C657323
:105180003A20252E3366206D730064656275673A98
:1051900020256C640053454E534F525320494E46D0
:1051A0004F0D0A00094163633A202564092564090B
:1051B00025640D0A00094779726F3A202564092594
:1051C000640925640D0A00094D61673A20256409C8
:1051D00025640925640D0A0009517561743A20257A
:1051E0002E336609252E336609252E336609252EB2
:1051F00033660D0A000954656D70657261747572CD
:10520000653A2025640D0A0000000000000000003F
:10521000000000000000000000000000000000008E
:10522000000000000000000000000000000000007E
:10523000000000000000000000000000000000006E
:10524000000000000000000000000000000000005E
:1059A000000000000000004E756D626572206F6699
:1059B00020636F6E6E656374656420494D55733A5C
:1059C0000000000000000000000000004D616720A2
:1059D00063616C20706172616D65746572733A0009
:1059E00000000000000000000000000000000000B7
:1059F00000000000000000000000000000000000A7
:105A00000000000000000000000000000000000096
:105A10000000000000000000000000000000000086
:105A20000000000000000000000000000000000076
:105A30000000000000000000000000000000000066
:105A40000000000000000000000000000000000056
:105A50000000000000000000000000000000000046
:105A60000000000000000000000000000000000036
:105A70000000000000000000000000000000000026
:105A80000000000000000000000000000000000016
:105A90000000000000000000000000000000000006
:105AA000000000000000000000009000041240E828
:105AB0009008E5E0FFEF64FA700302616B7BFF7A08
:105AC000507952C003C002C0019000041240C8A81F
:105AD00001AC02AD03D001D002D00312435B9000B1
:105AE000041240C8C003C002C0017BFF7A50795342
:105AF0009008B31240E8D001D002D00312A0F59074
:105B000000041240C8C003C002C0017BFF7A507974
:105B1000569008B31240E8D001D002D00312A0F58D
:105B20009000041240C8C003C002C0017BFF7A503D
:105B300079699008B31240E8D001D002D00312A0D6
:105B4000F59000041240C8C003C002C0017BFF7A78
:105B500050797A9008B31240E8D001D002D00312F5
:105B6000A0F59000041240C8C003C002C0017BFF32
:105B70007A50797F9008B31240E8D001D002D00368
:105B800012A0F57B017A007909C003C002C0017B35
:105B9000FF7A50798D9008B31240E89008E5E0FF55
:105BA0007E009008B6EEF0A3EFF0D001D002D00353
:105BB0001267189000041240C8C003C002C0017BE5
:105BC000017A0079099008B31240E8D001D002D0E0
:105BD0000312A0F59000041240C8C003C002C00127
:105BE0007BFF7A5079969008B31240E8D001D0023A
:105BF000D00312A0F57B017A007909C003C002C06E
:105C0000017BFF7A5079CC9008B31240E8900C1CCD
:105C1000E0FF7E009008B6EEF0A3EFF0D001D002D6
:105C2000D0031267189000041240C8C003C002C01D
:105C3000017B017A0079099008B31240E8D001D0C5
:105C400002D00312A0F59000041240C8C003C002A5
:105C5000C0017BFF7A5079539008B31240E8D0011D
:105C6000D002D00312A0F59000041240C8C003C0B7
:105C700002C0017BFF7A5079E09008B31240E8D06F
:105C800001D002D00312A0F5900007E4F0A3E4F0E5
:105C9000900C1CE0FF7E00900007E0FCA3E0FDC339
:105CA000ED9FEE6480F8EC64809840030260097B0D
:105CB000017A007909C003C002C0017BFF7A5079E4
:105CC000F59008B31240E8900007E0FEA3E0FF90D3
:105CD00008B6EEF0A3EFF0900007E0FEA3E0FF743B
:105CE0003D2FF58274093EF583E0FF7E009008B8F1
:105CF000EEF0A3EFF0D001D002D0031267189000AD
:105D0000041240C8C003C002C0017B017A007909B7
:105D10009008B31240E8D001D002D00312A0F57B66
:105D2000017A007909C003C002C0017BFF7A517972
:105D3000089008B31240E8D001D002D003126718CF
:105D4000900007E0FEA3E0FF743D2FF58274093E4A
:105D5000F583E0FFEF75F005A424E8F582E434084C
:105D6000F583E0FFEF60237B017A007909C003C06F
:105D700002C0017BFF7A51791A9008B31240E8D033
:105D800001D002D00312A0F580217B017A007909AD
:105D9000C003C002C0017BFF7A5179209008B31282
:105DA00040E8D001D002D00312A0F57B017A00793F
:105DB00009C003C002C0017BFF7A5179259008B366
:105DC0001240E8D001D002D00312A0F5900007E005
:105DD000FEA3E0FF743D2FF58274093EF583E0FFDA
:105DE000EF75F005A424E9F582E43408F583E0FFBB
:105DF000EF60237B017A007909C003C002C0017BF8
:105E0000FF7A51791A9008B31240E8D001D002D03D
:105E10000312A0F580217B017A007909C003C0023A
:105E2000C0017BFF7A5179209008B31240E8D0017D
:105E3000D002D00312A0F57B017A007909C003C01B
:105E400002C0017BFF7A5179339008B31240E8D049
:105E500001D002D00312A0F5900007E0FEA3E0FFFE
:105E6000743D2FF58274093EF583E0FFEF75F00570
:105E7000A424EAF582E43408F583E0FFEF60237B95
:105E8000017A007909C003C002C0017BFF7A517911
:105E90001A9008B31240E8D001D002D00312A0F546
:105EA00080217B017A007909C003C002C0017BFF19
:105EB0007A5179209008B31240E8D001D002D00383
:105EC00012A0F57B017A007909C003C002C0017BF2
:105ED000FF7A5179449008B31240E8D001D002D043
:105EE0000312A0F5900007E0FEA3E0FF743D2FF53C
:105EF0008274093EF583E0FFEF75F005A424EBF50D
:105F000082E43408F583E0FFEF60237B017A0079B7
:105F100009C003C002C0017BFF7A51791A9008B30F
:105F20001240E8D001D002D00312A0F580217B01FD
:105F30007A007909C003C002C0017BFF7A51792041
:105F40009008B31240E8D001D002D00312A0F57B34
:105F5000017A007909C003C002C0017BFF7A517940
:105F6000529008B31240E8D001D002D00312A0F53D
:105F7000900007E0FEA3E0FF743D2FF58274093E18
:105F8000F583E0FFEF75F005A424ECF582E4340816
:105F9000F583E0FFEF60237B017A007909C003C03D
:105FA00002C0017BFF7A51791A9008B31240E8D001
:105FB00001D002D00312A0F580217B017A0079097B
:105FC000C003C002C0017BFF7A5179209008B31250
:105FD00040E8D001D002D00312A0F5900004124096
:105FE000C8C003C002C0017B017A0079099008B3E0
:105FF0001240E8D001D002D00312A0F5900007E4CF
:1060000075F001123E40025C909000041240C8C03E
:1060100003C002C0017BFF7A5079539008B312404D
:10602000E8D001D002D00312A0F57B017A007909F3
:10603000C003C002C0017BFF7A5179619008B3129E
:1060400040E8900D1B124073901072124067123E90
:1060500082E4123B657B007A00797A7844123A3EFA
:106060009008B612409FD001D002D003126718905A
:1060700000041240C8C003C002C0017B017A00794D
:10608000099008B31240E8D001D002D00312A0F565
:106090009000041240C8C003C002C0017BFF7A50C8
:1060A00079539008B31240E8D001D002D00312A077
:1060B000F59000041240C8C003C002C0017BFF7A03
:1060C0005079539008B31240E8D001D002D00312A7
:1060D000A0F57B017A007909C003C002C0017BFFF3
:1060E0007A51798A9008B31240E8900D1B124073E0
:1060F000901072124067123E829008B612409FD0F4
:1061000001D002D0031267189000041240C8C003E7
:10611000C002C0017B017A0079099008B31240E8FF
:10612000D001D002D00312A0F59000041240C8C0E4
:1061300003C002C0017BFF7A5079539008B312402C
:10614000E8D001D002D00312A0F59000041240C89C
:10615000C003C002C0017BFF7A5079539008B3128C
:1061600040E8D001D002D00312A0F5229000041222
:1061700040E87BFF7A507952C003C002C001900012
:10618000041240C8A801AC02AD03D001D002D00374
:1061900012435B9000041240C8C003C002C0017BE0
:1061A000FF7A5079539008B31240E8D001D002D062
:1061B0000312A0F59000041240C8C003C002C00141
:1061C0007BFF7A5179959008B31240E8D001D00254
:1061D000D00312A0F5900007E4F0A3E4F0900C1CAB
:1061E000E0FF7E00900007E0FCA3E0FDC3ED9FEE22
:1061F0006480F8EC64809840030266B27B017A0008
:106200007909C003C002C0017BFF7A5079F590087C
:10621000B31240E8900007E0FEA3E0FF9008B6EE5E
:10622000F0A3EFF0900007E0FEA3E0FF743D2FF530
:106230008274093EF583E0FF7E009008B8EEF0A37B
:10624000EFF0D001D002D003126718900004124082
:10625000C8C003C002C0017B017A0079099008B36D
:106260001240E8D001D002D00312A0F5900007E060
:10627000FEA3E0FF743D2FF58274093EF583E0FF35
:10628000EF75F005A424E8F582E43408F583E0FF17
:10629000EF70030263507B017A007909C003C002EA
:1062A000C0017BFF7A5179A49008B31240E89000B6
:1062B00007E0FEA3E0FF9009A875F025EF1240BCAF
:1062C000EE75F025A42583F583E0FEA3E0FF90089A
:1062D000B6EEF0A3EFF0900007E0FEA3E0FF900918
:1062E000AA75F025EF1240BCEE75F025A42583F5C4
:1062F00083E0FEA3E0FF9008B8EEF0A3EFF090007B
:1063000007E0FEA3E0FF9009AC75F025EF1240BC5A
:10631000EE75F025A42583F583E0FEA3E0FF900849
:10632000BAEEF0A3EFF0D001D002D00312671890BC
:1063300000041240C8C003C002C0017B017A00798A
:10634000099008B31240E8D001D002D00312A0F5A2
:10635000900007E0FEA3E0FF743D2FF58274093E34
:10636000F583E0FFEF75F005A424E9F582E4340835
:10637000F583E0FFEF70030264347B017A00790952
:10638000C003C002C0017BFF7A5179B59008B312F7
:1063900040E8900007E0FEA3E0FF9009AE75F0250D
:1063A000EF1240BCEE75F025A42583F583E0FEA333
:1063B000E0FF9008B6EEF0A3EFF0900007E0FEA338
:1063C000E0FF9009B075F025EF1240BCEE75F025A6
:1063D000A42583F583E0FEA3E0FF9008B8EEF0A3C8
:1063E000EFF0900007E0FEA3E0FF9009B275F02502
:1063F000EF1240BCEE75F025A42583F583E0FEA3E3
:10640000E0FF9008BAEEF0A3EFF0D001D002D00385
:106410001267189000041240C8C003C002C0017B7C
:10642000017A0079099008B31240E8D001D002D077
:106430000312A0F5900007E0FEA3E0FF743D2FF5E6
:106440008274093EF583E0FFEF75F005A424EAF5B8
:1064500082E43408F583E0FFEF70030265187B01E6
:106460007A007909C003C002C0017BFF7A5179C765
:106470009008B31240E8900007E0FEA3E0FF900907
:10648000B475F025EF1240BCEE75F025A42583F518
:1064900083E0FEA3E0FF9008B6EEF0A3EFF09000DB
:1064A00007E0FEA3E0FF9009B675F025EF1240BCAF
:1064B000EE75F025A42583F583E0FEA3E0FF9008A8
:1064C000B8EEF0A3EFF0900007E0FEA3E0FF900924
:1064D000B875F025EF1240BCEE75F025A42583F5C4
:1064E00083E0FEA3E0FF9008BAEEF0A3EFF0D00146
:1064F000D002D0031267189000041240C8C003C035
:1065000002C0017B017A0079099008B31240E8D0FB
:1065100001D002D00312A0F5900007E0FEA3E0FF37
:10652000743D2FF58274093EF583E0FFEF75F005A9
:10653000A424EBF582E43408F583E0FFEF70030256
:1065400066147B017A007909C003C002C0017BFF99
:106550007A5179D89008B31240E8900007E0FEA382
:10656000E0FF9009BA75F025EF1240BCEE75F025FA
:10657000A42583F5831240679008B612409F9000CF
:1065800007E0FEA3E0FF9009BE75F025EF1240BCC6
:10659000EE75F025A42583F5831240679008BA12A2
:1065A000409F900007E0FEA3E0FF9009C275F02530
:1065B000EF1240BCEE75F025A42583F583124067E9
:1065C0009008BE12409F900007E0FEA3E0FF9009F4
:1065D000C675F025EF1240BCEE75F025A42583F5B5
:1065E000831240679008C212409FD001D002D003AE
:1065F0001267189000041240C8C003C002C0017B9B
:10660000017A0079099008B31240E8D001D002D095
:106610000312A0F5900007E0FEA3E0FF743D2FF504
:106620008274093EF583E0FFEF75F005A424ECF5D4
:1066300082E43408F583E0FFEF606A7B017A007939
:1066400009C003C002C0017BFF7A5179F59008B3FD
:106650001240E8900007E0FEA3E0FF9009CA75F041
:1066600025EF1240BCEE75F025A42583F583E0FEEE
:10667000A3E0FF9008B6EEF0A3EFF0D001D002D077
:10668000031267189000041240C8C003C002C00182
:106690007B017A0079099008B31240E8D001D0025A
:1066A000D00312A0F5900007E475F001123E4002FD
:1066B00061DD22E51A24B3F582E43408F583E005B0
:1066C0001A229008B03008039008B3E475F0011264
:1066D00040D1023DD62001E97F2ED2018018EF542F
:1066E0000F2490D43440D4FF30050BEF24BFB41AEC
:1066F0000050032461FFE51B6002151B051EE51E0B
:106700007002051D30080E9008B0E475F0011240CB
:10671000D1EF023E1C02ADF27403D2088003E4C242
:1067200008F51A9008B01240E8E4F51BF51DF51EB7
:10673000E51B60077F201266F680F5751CFFC2021C
:10674000C201C203C204C206C207C2091266C2FF66
:10675000700D3008057F00126707AF1EAE1D22B412
:10676000255FC2D5C2051266C2FF24D0B40A00500C
:106770001A75F00A781B30D50508B6FF0106C6A4C5
:1067800026F620D5047002D20480D924CFB41A0092
:10679000EF5004C2E5D2050269F9D20280C6D201E7
:1067A00080C0D20380BCD2D580BAD20680B47F200C
:1067B0001266F62003077401B51B0040F11266B3A0
:1067C000FF1266F6026730D209D20780951266B3CF
:1067D000FB1266B3FA1266B3F94A4B700679F77A80
:1067E0006A7BFF20032EE51B602A7E008E82758364
:1067F00000123DEF60060EEE651C70F0C2D5EBC0D6
:10680000E0EAC0E0E9C0E0EE126A5AD0E0F9D0E078
:10681000FAD0E0FB123DD6FF60AAEBC0E0EAC0E090
:10682000E9C0E01266F6D0E02401F9D0E03400FAC5
:10683000D0E0FBE51C0460DCD51CD98087D2038046
:10684000A2126A3C60F7E51C700104123C24A91CEA
:10685000600DE51C600914F51C126AE4EF60F3EAB0
:1068600030E702F404C3995079EAF4251C0430E7B8
:1068700001E404F51C800D126A3C60C1EA051C2588
:106880001C123C24EA9008DFF030E701E4251C04E8
:10689000D51C0420060114126A5AE4C0E0126AE40E
:1068A0009008DFE0601320E70714F01266DE802214
:1068B00004F0D0E014C0E07F001266DEE51C600743
:1068C0001266D5151C800B3006031266D5D0E00287
:1068D0006730D0E00480C4126A3C609EE51C04125C
:1068E0003C249008DFEAF0E51C2006026001042445
:1068F00004126A5A74FF04C0E0126AE41266DEE50C
:106900001C20060260031266D5D0E0B51CE87F4566
:106910001266E89008DFE07F2B30E7047F2DF40457
:10692000C0E01266F6D0E075F00A84C0F01266DFAF
:10693000D0E01266DF026730791080027908C20762
:10694000C2098008D2D5790A8004790AC2D5E51C2B
:10695000047002F51CE4FAFDFEFF1266B3FC7B082E
:106960002002131266B3FD7B1030010A1266B3FEDB
:106970001266B3FF7B20EC3382D592D55013C3E46B
:106980003001069FFFE49EFEE42002039DFDE49C8F
:10699000FCE4CBF8C202EC700CCFCECDCCE824F8EE
:1069A000F870F38017C3EF33FFEE33FEED33FDECE9
:1069B00033FCEB33FB994002FB0FD8E9EB300205C7
:1069C000F8D0E0C448B202C0E00AEC4D4E4F782047
:1069D0007B0070C2EAB51C0040BCC0E0126A5CD00B
:1069E000F0D0E0200204C4C0E0C4B202C0F01266DD
:1069F000DFD0F0D5F0EB0267301240F167CD53697C
:106A00003858679E4C679A42693C4F6944446944D0
:106A10004967B343694A5568774668D7456841472F
:106A20006B175067A22D67A62E67C92B67AA23672D
:106A3000C7206B002A676248000067C1E51CB4FFED
:106A400003751C061266B3FC1266B3FD1266B3FE34
:106A50001266B3FF9008D8023C61790AA2D52004DF
:106A600014300609B910020404B9080104A2D520A3
:106A700007025001042003689203B51B005034C084
:106A8000E07F203004197F30A20372077206500F96
:106A9000126AB3C203C207C206C2097F30800F3038
:106AA0000603E9C0E01266F6300603D0E0F9D0E054
:106AB000B51BCC3006177F30B9100C1266F67F5824
:106AC0003005077F788003B908031266F6300305A6
:106AD0007F2D0266F67F202009F87F2B2007F32206
:106AE000920380CF7F00B40700500B24D8F582E4D6
:106AF0003408F583E0FF22286E756C6C2900D20201
:106B00001266B33002F8C202781B30D50108F602D3
:106B100067622D504349581266B32403B405004000
:106B200001E4906B12931266E7743A1266E7D2049E
:106B3000751B040269389000037401F0900004E4AE
:106B4000F09000057401F090000674A1F09000022E
:106B5000E4F0900C1CE0FF900002E0FEEEC39F40CA
:106B600003026F51900164743AF0900002E0FF74E8
:106B70003D2FF582E43409F583E0FFEF75F005A4BD
:106B800024E8F582E43408F583E0FFEF607F9000AD
:106B900002E0FF75F025EF9009A81240BCE0FEA3CB
:106BA000E0FF900003E0FD74642DF582E43401F50C
:106BB00083EEF0A3EFF0900002E0FF75F025EF9078
:106BC00009AA1240BCE0FEA3E0FF900003E0FD74C0
:106BD000662DF582E43401F583EEF0A3EFF090002A
:106BE00002E0FF75F025EF9009AC1240BCE0FEA377
:106BF000E0FF900003E0FD74682DF582E43401F5B8
:106C000083EEF0A3EFF0900003E02406F090000282
:106C1000E0FF743D2FF582E43409F583E0FFEF7562
:106C2000F005A424E9F582E43408F583E0FFEF6081
:106C30007F900002E0FF75F025EF9009AE1240BC96
:106C4000E0FEA3E0FF900003E0FD74642DF582E414
:106C50003401F583EEF0A3EFF0900002E0FF75F051
:106C600025EF9009B01240BCE0FEA3E0FF900003C6
:106C7000E0FD74662DF582E43401F583EEF0A3EFB8
:106C8000F0900002E0FF75F025EF9009B21240BCD1
:106C9000E0FEA3E0FF900003E0FD74682DF582E4C0
:106CA0003401F583EEF0A3EFF0900003E02406F04A
:106CB000900002E0FF743D2FF582E43409F583E093
:106CC000FFEF75F005A424EAF582E43408F583E0CB
:106CD000FFEF607F900002E0FF75F025EF9009B4B0
:106CE0001240BCE0FEA3E0FF900003E0FD74642DC1
:106CF000F582E43401F583EEF0A3EFF0900002E0BA
:106D0000FF75F025EF9009B61240BCE0FEA3E0FF4E
:106D1000900003E0FD74662DF582E43401F583EE06
:106D2000F0A3EFF0900002E0FF75F025EF9009B8B6
:106D30001240BCE0FEA3E0FF900003E0FD74682D6C
:106D4000F582E43401F583EEF0A3EFF0900003E068
:106D50002406F0900002E0FF743D2FF582E4340930
:106D6000F583E0FFEF75F005A424EBF582E4340829
:106D7000F583E0FFEF7003026E11900002E0FF75F3
:106D8000F025EF9009BA1240BC124067900003E072
:106D9000FB74642BF582E43401F58312409F90006C
:106DA00002E0FF75F025EF9009BE1240BC1240676B
:106DB000900003E0FB74682BF582E43401F5831244
:106DC000409F900002E0FF75F025EF9009C212404D
:106DD000BC124067900003E0FB746C2BF582E43436
:106DE00001F58312409F900002E0FF75F025EF90BF
:106DF00009C61240BC124067900003E0FB74702B80
:106E0000F582E43401F58312409F900003E02410E2
:106E1000F0900002E0FF743D2FF582E43409F58321
:106E2000E0FFEF75F005A424ECF582E43408F58367
:106E3000E0FFEF602F900002E0FF75F025EF900972
:106E4000CA1240BCE0FEA3E0FF900003E0FD7464C2
:106E50002DF582E43401F583EEF0A3EFF09000030A
:106E6000E02402F0900002E0FF743D2FF582E4344C
:106E700009F583E0FFEF25E02450F582E43410F5B6
:106E800083E0FEA3E0FF74632FF58274013EF58377
:106E9000743AF09000037401F0900004E4F0900064
:106EA00002E0FF743D2FF582E43409F583E0FFEF43
:106EB00025E02450F582E43410F583E0FEA3E0FFE2
:106EC000900004E0FD7C00C3ED9FEE6480F8EC646C
:106ED0008098503D900004E0FF74642FF582E43404
:106EE00001F583E0FF900004E0FEEEFD7C009000E1
:106EF00005E0FEEEFB7A00EB2DFDEA3CFC74062D6E
:106F0000F58274003CF583EFF0900004E004F0801B
:106F10008D900002E0FF743D2FF582E43409F58383
:106F2000E0FFEF25E02450F582E43410F583E0FE25
:106F3000A3E0FF900005E02FF07E007F167D007B30
:106F4000017A017964124195900002E004F0026B2D
:106F5000527B017A0079069010DCE0FEA3E0FFEF9F
:106F600014FD12A9AC9010DCE0FCA3E0FD74052D2B
:106F7000F58274003CF583EFF07B017A007906908E
:106F800010DCE0FCA3E0FD129D0A22900002E4F078
:106F9000A3E4F0900004E4F0A3E4F0900006E4F031
:106FA000A3E4F0900008E4F0A3E4F090164FE4F0BE
:106FB000900C1CE0FF90164FE0FEEEC39F400302D2
:106FC00073B490164FE0FF743D2FF582E43409F559
:106FD00083E0FF7E0012A53690164FE0FF743D2F30
:106FE000F582E43409F583E0FF7E0012936390009C
:106FF00006E4F0A3E4F0900006E0FEA3E0FFC3EF98
:107000009403EE940040030270D8900006E0FEA3C3
:10701000E0FFEF25E0FFEE33FE90164FE0FD743DFC
:107020002DF582E43409F583E0FDED75F006A42426
:1070300076F582E43410F583E5822FF582E5833E10
:10704000F583E0FF7E00900002EEF0A3EFF09000E9
:1070500006E0FEA3E0FFEF25E0FFEE33FE90164FC3
:10706000E0FD743D2DF582E43409F583E0FDED7516
:10707000F006A42477F582E43410F583E5822FF539
:1070800082E5833EF583E0FFEFFD7C00900002E0A7
:10709000FEA3E0FFEF7F00FEEE4CFCEF4DFD900005
:1070A00006E0FEA3E0FFEF25E0FFEE33FE90164F73
:1070B000E0FB75F025EB900DDC1240BCE5822FF56E
:1070C00082E5833EF583ECF0A3EDF0900006E475D5
:1070D000F001123E40026FF6900006E4F0A3E4F0E7
:1070E000900006E0FEA3E0FFC3EF9403EE9400409F
:1070F000030271C2900006E0FEA3E0FFEF25E0FF6F
:10710000EE33FE90164FE0FD743D2DF582E4340918
:10711000F583E0FDED75F006A424B5F582E4340CAA
:10712000F583E5822FF582E5833EF583E0FF7E005F
:10713000900002EEF0A3EFF0900006E0FEA3E0FF67
:10714000EF25E0FFEE33FE90164FE0FD743D2DF588
:1071500082E43409F583E0FDED75F006A424B6F56C
:1071600082E4340CF583E5822FF582E5833EF583D6
:10717000E0FFEFFD7C00900002E0FEA3E0FFEF7F68
:1071800000FEEE4CFCEF4DFD900006E0FEA3E0FF9C
:10719000EF25E0FFEE33FE90164FE0FB75F025EB98
:1071A000900DE21240BCE5822FF582E5833EF58327
:1071B000ECF0A3EDF0900006E475F001123E400201
:1071C00070E0900006E4F0A3E4F0900006E0FEA377
:1071D000E0FFC3EF9403EE940040030272AC900012
:1071E00006E0FEA3E0FFEF25E0FFEE33FE90164F32
:1071F000E0FD743D2DF582E43409F583E0FDED7585
:10720000F006A4241DF582E4340CF583E5822FF505
:1072100082E5833EF583E0FF7E00900002EEF0A35E
:10722000EFF0900006E0FEA3E0FFEF25E0FFEE3375
:10723000FE90164FE0FD743D2DF582E43409F58390
:10724000E0FDED75F006A4241EF582E4340CF58310
:10725000E5822FF582E5833EF583E0FFEFFD7C00BC
:10726000900002E0FEA3E0FFEF7F00FEEE4CFCEF9B
:107270004DFD900006E0FEA3E0FFEF25E0FFEE33BA
:10728000FE90164FE0FB75F025EB900DE81240BC28
:10729000E5822FF582E5833EF583ECF0A3EDF090D7
:1072A0000006E475F001123E400271CA900006E447
:1072B000F0A3E4F090164FE0FFEF707D900006E041
:1072C000FEA3E0FFC3EF9404EE9400506C90000620
:1072D000E0FEA3E0FFEF7802C333CE33CED8F9FF50
:1072E00074A52FF582740C3EF583124067C004C06C
:1072F00005C006C007900006E0FEA3E0FFEF78029D
:10730000C333CE33CED8F9FF90164FE0FD75F0258C
:10731000ED900DEE1240BCE5822FF582E5833EF53F
:1073200083D007D006D005D00412409F900006E419
:1073300075F001123E400272B490164FE0FF743DAA
:107340002FF582E43409F583E0FFEF25E02483F58F
:1073500082E4340CF583E0FF7E00900002EEF0A39F
:10736000EFF090164FE0FF743D2FF582E43409F5FD
:1073700083E0FFEF25E02484F582E4340CF583E01C
:10738000FFEFFD7C00900002E0FEA3E0FFEF7F0036
:10739000FEEE4CFEEF4DFF90164FE0FD75F025ED33
:1073A000900DFE1240BCEEF0A3EFF090164FE004FB
:1073B000F0026FB022900003E4F07E007F257D0094
:1073C0007B017A0979A71241957E007F117D007BB0
:1073D000017A09793D124195900002E4F090000293
:1073E000E0FFEFC39411502B900002E0FF7E0012EB
:1073F000A5367F0A7E007D007C0012A230128D6DC2
:107400007F0A7E007D007C0012A230900002E00422
:10741000F080CA7F327E007D007C0012A230900096
:1074200002E4F0900002E0FFEFC39411501C9000C2
:1074300002E0FF7E0012A536900002E0FF7E0012FF
:10744000974B900002E004F080D9900002E4F090A5
:107450000002E0FFEFC394115022900002E0FF7E93
:107460000012A5367F0A7E007D007C0012A2307FCC
:107470007512AD01900002E004F080D37F007E0021
:1074800012A5367F0A7E007D007C0012A2307F7537
:1074900012AD017E00900004EEF0A3EFF090000426
:1074A000E4F0A3E4F0900C1CE4F0900002E4F0900F
:1074B0000002E0FFEFC394115078900002E0FF7EDD
:1074C0000012A5367F0A7E007D007C0012A2307F6C
:1074D0007512AD017E00900004EEF0A3EFF0900075
:1074E00004E0FEA3E0FFEF64714E7027900C1CE0F7
:1074F00004F0900004E4F0A3E4F0900002E0FFEF59
:1075000025E02406F582E43400F583E4F0A3740159
:10751000F08016900002E0FFEF25E02406F582E4FB
:107520003400F583E4F0A3E4F0900002E004F002FC
:1075300074AF900002E4F0900002E0FFEFC39411FA
:107540005040900002E0FFEF25E02406F582E4348D
:1075500000F583E0FEA3E0FFEF64014E701C900095
:1075600002E0FF900003E0FE743D2EF582E4340952
:10757000F583EFF0900003E004F0900002E004F0E7
:1075800080B57F0012ABE47F0A7E007D007C001294
:10759000A2307F0112ABE47F0A7E007D007C0012E6
:1075A000A230900002E4F0900002E0FFEFC39411DB
:1075B000502B900002E0FF7E0012A5367F0A7E006D
:1075C0007D007C0012A230128C5E7F0A7E007D005E
:1075D0007C0012A230900002E004F080CA7F327E6C
:1075E000007D007C0012A2307E007F227D007B01A6
:1075F0007A1079501241959010DCE4F0A37401F0F8
:10760000900002E4F0900C1CE0FF900002E0FEEE1F
:10761000C39F400302773F900002E0FF743D2FF5C7
:1076200082E43409F583E0FFEF75F005A424E9F561
:1076300082E43408F583E0FFEF75F006A4FF9000C4
:1076400002E0FE743D2EF582E43409F583E0FEEE9F
:1076500075F005A424E8F582E43408F583E0FEEE35
:1076600075F006A4FEEE2FFF900002E0FE743D2EA2
:10767000F582E43409F583E0FEEE75F005A424EA12
:10768000F582E43408F583E0FEEE75F006A4FEEE24
:107690002FFF900002E0FE743D2EF582E43409F5E0
:1076A00083E0FEEE75F005A424EBF582E43408F5E2
:1076B00083E0FEEEC454F0FEEE2FFF900002E0FEE9
:1076C000743D2EF582E43409F583E0FEEE75F00595
:1076D000A424ECF582E43408F583E0FEEE25E0FE18
:1076E000EE2FFFEF2402FF7E00900002E0FD743DCC
:1076F0002DF582E43409F583E0FDED25E02450F515
:1077000082E43410F583EEF0A3EFF0900002E0FF86
:10771000743D2FF582E43409F583E0FFEF25E02482
:1077200050F582E43410F583E0FEA3E0FF9010DC16
:10773000EE8FF0123E40900002E004F002760590D9
:1077400010DCE475F001123E4022900002EFF09050
:107750000003ECF0A3EDF0900005EAF0A3EBF0904D
:107760000008E0FFEFD3940050030279499000082D
:10777000E0FFEFD394014003027949900002E0FF5B
:10778000EF1240F177970177970477C40777EF08F6
:10779000781A0A00007845900007E0FFEFD3940FB5
:1077A00040117B0C7A01791812B243900009EFF076
:1077B00002784A7B0C7A01791C12B243900009EFDF
:1077C000F002784A900007E0FFEFD3940F40107B5F
:1077D0000C7A01791912B243900009EFF0806B7BAB
:1077E0000C7A01791D12B243900009EFF0805B9092
:1077F0000007E0FFEFD3940F40107B0C7A01791A59
:1078000012B243900009EFF080407B0C7A01791EA0
:1078100012B243900009EFF08030900007E0FFEFD4
:10782000D3940F40107B0C7A01791B12B243900065
:1078300009EFF080157B0C7A01791F12B24390009A
:1078400009EFF08005900009E4F0900009E0FFEFF7
:107850003395E0FEFDFC7B207A0079007800123E33
:1078600090A804A905AA06AB07900003E0FEA3E0D8
:10787000FFE4FCFD123E7590000A12409F90000A42
:10788000124067AB07AA06A905A804A804A905AA7F
:1078900006AB07900005E0FEA3E0FFE4FCFD123E0E
:1078A0009090001012409F7B007A807900780090C1
:1078B0000010124067123F1B90000EEEF0A3EFF095
:1078C000900007E0FFEFC3940E504790000EE0FEDB
:1078D000A3E0FF900007E0FDC3740E9DFDEFA80537
:1078E000088005CEC313CE13D8F9FF90000EEEF03A
:1078F000A3EFF0900007E0FFEF04FF900008E0FE28
:10790000EE75F003A42425F582E43416F583EFF038
:107910008016900008E0FFEF75F003A42425F5829F
:10792000E43416F583740FF090000EE0FEA3E0FF40
:10793000900008E0FDED75F003A42423F582E43403
:1079400016F583EEF0A3EFF0227F0012B09822909C
:107950000002EEF0A3EFF0900004EDF012B265909B
:107960000006EFF012B25B900007EEF0A3EFF0908C
:107970000007E0FEA3E0FF900002E0FCA3E0FDEDC5
:107980006F7002EC6E7003027AE39043A2E0FFEFA7
:107990005401FF900005EFF0900006E0FFEF705EED
:1079A000900007E0FEA3E0FFEF4E600C900002E0C5
:1079B000FEA3E0FFEF4E7046900007E0FEA3E0FF5D
:1079C000EF4E701D7B027A407980900002E0FCA3AC
:1079D000E0FD12B204904082E0FFEF54BFFFEFF0F1
:1079E00022904082E0FFEF4440FFEFF07B027A40BC
:1079F0007980900002E0FCA3E0FD12B20422900026
:107A000005E0FFEF606C904001E4F09040107401DD
:107A1000F0904014E4F0904008E0FFEF547FFFEF57
:107A2000F0904082E0FFEF5408FF7E00EF4E600CC4
:107A3000900002E0FEA3E0FFEF4E70367B027A403A
:107A40007902900007E0FCA3E0FD12B2049040012F
:107A50007407F0904001E0FFEF5401FF7E00EF4E0D
:107A600070F19043A2E0FFEF54FEFFEFF090400171
:107A7000E4F09043A2E0FFEF5401FF7E00EF4E6080
:107A80003A7B027A407902900002E0FCA3E0FD120A
:107A9000B204900004E0FFEF60047F0280027F00E8
:107AA000EF4401FF904001EFF0904001E0FFEF5400
:107AB00001FF7E00EF4E602B80EF227B027A40793F
:107AC00080900002E0FCA3E0FD12B2049043A2C04B
:107AD00083C082E0FF900005E0FEEF4EFFD082D031
:107AE00083EFF022900003EEF0A3EFF0900005ED9D
:107AF000F012B28D900007EFF012B283900008EE02
:107B0000F0A3EFF0900008E0FEA3E0FF900003E098
:107B1000FCA3E0FDED6F7002EC6E7003027C7890C8
:107B200043A2E0FFEF5402FF900006EFF090000741
:107B3000E0FFEF705E900008E0FEA3E0FFEF4E6014
:107B40000C900003E0FEA3E0FFEF4E7046900008AB
:107B5000E0FEA3E0FFEF4E701D7B027A4079849037
:107B60000003E0FCA3E0FD12B204904086E0FFEFCA
:107B700054BFFFEFF022904086E0FFEF4440FFEF5C
:107B8000F07B027A407984900003E0FCA3E0FD12D0
:107B9000B20422900006E0FFEF606C904001E4F038
:107BA0009040107402F0904014E4F0904008E0FF20
:107BB000EF547FFFEFF0904086E0FFEF5408FF7E28
:107BC00000EF4E600C900003E0FEA3E0FFEF4E706C
:107BD000367B027A407902900008E0FCA3E0FD12B7
:107BE000B2049040017407F0904001E0FFEF5401AF
:107BF000FF7E00EF4E70F19043A2E0FFEF54FDFFD7
:107C0000EFF0904001E4F09043A2E0FFEF5402FF58
:107C10007E00EF4E603A7B027A407902900003E0EA
:107C2000FCA3E0FD12B204900005E0FFEF60047FCA
:107C30000280027F00EF4401FF904001EFF090408E
:107C400001E0FFEF5401FF7E00EF4E602B80EF223A
:107C50007B027A407984900003E0FCA3E0FD12B23D
:107C6000049043A2C083C082E0FF900006E0FEEFD4
:107C70004EFFD082D083EFF022900003EEF0A3EF0E
:107C8000F0900005EDF012B2A1900007EFF012B2F3
:107C900097900008EEF0A3EFF0900008E0FEA3E05C
:107CA000FF900003E0FCA3E0FDED6F7002EC6E704E
:107CB00003027E0D9043A1E0FFEF5401FF90000608
:107CC000EFF0900007E0FFEF705E900008E0FEA389
:107CD000E0FFEF4E600C900003E0FEA3E0FFEF4EEC
:107CE0007046900008E0FEA3E0FFEF4E701D7B029F
:107CF0007A417900900003E0FCA3E0FD12B2049009
:107D00004102E0FFEF54BFFFEFF022904102E0FF9D
:107D1000EF4440FFEFF07B027A417900900003E0EE
:107D2000FCA3E0FD12B20422900006E0FFEF606CBD
:107D3000904001E4F09040147401F0904010E4F0A1
:107D4000904008E0FFEF547FFFEFF0904102E0FF2A
:107D5000EF5408FF7E00EF4E600C900003E0FEA39E
:107D6000E0FFEF4E70367B027A407902900008E027
:107D7000FCA3E0FD12B2049040017407F0904001B2
:107D8000E0FFEF5401FF7E00EF4E70F19043A1E061
:107D9000FFEF54FEFFEFF0904001E4F09043A1E0CC
:107DA000FFEF5401FF7E00EF4E603A7B027A40798C
:107DB00002900003E0FCA3E0FD12B204900005E095
:107DC000FFEF60047F0280027F00EF4401FF9040DC
:107DD00001EFF0904001E0FFEF5401FF7E00EF4E15
:107DE000602B80EF227B027A417900900003E0FC57
:107DF000A3E0FD12B2049043A1C083C082E0FF90D3
:107E00000006E0FEEF4EFFD082D083EFF02290001C
:107E1000611240E89000611240C8E92404F9EA3494
:107E200000FA12402D9000611240C8E92404F9EADA
:107E30003400FA12407F123935C004C005C006C0B4
:107E4000079000611240C812402D9000611240C896
:107E500012407F123935A804A905AA06AB07D0073E
:107E6000D006D005D004123844C004C005C006C0F6
:107E7000079000611240C8E92408F9EA3400FA12B8
:107E8000402D9000611240C8E92408F9EA3400FA54
:107E900012407F123935A804A905AA06AB07D007FE
:107EA000D006D005D004123844C004C005C006C0B6
:107EB000079000611240C8E9240CF9EA3400FA1274
:107EC000402D9000611240C8E9240CF9EA3400FA10
:107ED00012407F123935A804A905AA06AB07D007BE
:107EE000D006D005D0041238441297FC90006412DA
:107EF000409F9000611240C8C003C002C001124000
:107F00002D900064124073123935D001D002D00395
:107F100012404D9000611240C8E92404F9EA34008F
:107F2000FA12402D900064124073123935900061AE
:107F30001240C8E92404F9EA3400FA12404D9000D6
:107F4000611240C8E92408F9EA3400FA12402D9081
:107F500000641240731239359000611240C8E92460
:107F600008F9EA3400FA12404D9000611240C8E965
:107F7000240CF9EA3400FA12402D90006412407388
:107F80001239359000611240C8E9240CF9EA340036
:107F9000FA12404D227B007A4079807D027C0012EB
:107FA000B2029040827418F07B007A4079847D00A0
:107FB0007C0012B2029040867450F07B007A4079C7
:107FC000887D177C0012B20290408A7418F07B0002
:107FD0007A40798C7D2F7C0012B20290408E74180A
:107FE000F07CB97D4F7B007A4179007F047E0012DE
:107FF000AE199043007406F09042007452F07B0C6E
:108000007A01790F12B2439046A1EFF07B007A42D9
:1080100079227D107C0712B2027B007A4279207DA2
:10802000517C1212B202900004E4F07F197E007DB0
:10803000007C0090000012409F900000124067D327
:10804000EF9400EE9400404E900004E0FFEF6403D4
:108050006044904225E0FFEF5401FF7E0090000451
:10806000E0FEEE25E0FEEE4FFFEF5403FF9000042C
:10807000EFF07FE07E017D007C0012AA00900000FE
:108080001240677BFF7AFF79FF78FF123E75900000
:108090000012409F80A3900000124067EF4E7005D1
:1080A0007F0312B0FF7B007A4079047D007C0112CF
:1080B000B2029040047407F0904006E4F09040084B
:1080C0007448F0904004E4F0904009E4F0904001DE
:1080D0007402F090400B7404F09043A2E0FFEF4470
:1080E0000FFF9043A2EFF09043A1E0FFEF4401FFA8
:1080F0009043A1EFF09043A0E0FFEF4480FF904356
:10810000A0EFF0227B007A4679E812B243EF4401F7
:10811000FD7B007A4679E812B24F1287C0905883EF
:10812000740AF07CB97D6B7B007A7679507F047E8F
:108130000012AE197B017A50790312B243EF440268
:10814000FD7B017A50790312B24F7B017A5079138B
:1081500012B243EF4402FD7B017A50791312B24F01
:108160009043A0E0FFEF4440FF9043A0EFF0904326
:10817000C2E0FFEF4410FF9043C2EFF07B087A1F8C
:1081800079E4C003C002C0017B007A5179029000FB
:10819000051240E8D001D002D0037F087E0012AB68
:1081A0004B7B087A1F79ECC003C002C0017B007AC8
:1081B0005179C29000051240E8D001D002D0037F6F
:1081C000087E0012AB4B7B087A1F79F4C003C00213
:1081D000C0017B007A5179F29000051240E8D0018D
:1081E000D002D0037F087E0012AB4B7CB97D597B57
:1081F000007A5179107F0A7E0012AE197CB97D6336
:108200007B007A5179227F087E0012AE199044F4E7
:108210007401F0904322E0FFEF4408FF904322EF07
:10822000F09046ECE0FFEFC3940550069046897449
:108230003AF090480074F1F0127F9512A6327B005C
:108240007A4379A0C003C002C0017B007A4379B0B1
:108250009000051240E8D001D002D0037F0E7E00CE
:1082600012AB4B9043B0E0FFEF54FDFFEFF02290D4
:108270000061EEF0A3EFF0900063E4F0900064E49E
:10828000F0900061E0FEA3E0FF900065EEF0A3EF48
:10829000F07F3C12AD01900063EFF012AE3F7F3BE8
:1082A00012AD01900064EFF012AE3F900064E0FF69
:1082B000900065E0FCA3E0FD90107675F006ED12ED
:1082C00040BCEC75F006A42583F583EFF0900063C5
:1082D000E0FF900065E0FCA3E0FD90107775F006EC
:1082E000ED1240BCEC75F006A42583F583EFF09009
:1082F0000063E4F0900064E4F07F3E12AD01900072
:1083000063EFF012AE3F7F3D12AD01900064EFF0DD
:1083100012AE3F900064E0FF900065E0FCA3E0FD3A
:1083200090107875F006ED1240BCEC75F006A425AF
:1083300083F583EFF0900063E0FF900065E0FCA31D
:10834000E0FD90107975F006ED1240BCEC75F0067A
:10835000A42583F583EFF0900063E4F0900064E4DB
:10836000F07F4012AD01900063EFF012AE3F7F3F0F
:1083700012AD01900064EFF012AE3F900064E0FF98
:10838000900065E0FCA3E0FD90107A75F006ED1218
:1083900040BCEC75F006A42583F583EFF0900063F4
:1083A000E0FF900065E0FCA3E0FD90107B75F00617
:1083B000ED1240BCEC75F006A42583F583EFF09038
:1083C0000063E4F0900064E4F022900061EEF0A31A
:1083D000EFF0900063E4F0900064E4F0900061E05E
:1083E000FEA3E0FF900065EEF0A3EFF07F4412AD36
:1083F00001900063EFF012AE3F7F4312AD01900099
:1084000064EFF012AE3F900064E0FF900065E0FC86
:10841000A3E0FD900CB575F006ED1240BCEC75F0D4
:1084200006A42583F583EFF0900063E0FF900065DC
:10843000E0FCA3E0FD900CB675F006ED1240BCEC3C
:1084400075F006A42583F583EFF0900063E4F090C7
:108450000064E4F07F4612AD01900063EFF012AECD
:108460003F7F4512AD01900064EFF012AE3F9000E7
:1084700064E0FF900065E0FCA3E0FD900CB775F0B0
:1084800006ED1240BCEC75F006A42583F583EFF0F1
:10849000900063E0FF900065E0FCA3E0FD900CB865
:1084A00075F006ED1240BCEC75F006A42583F5834B
:1084B000EFF0900063E4F0900064E4F07F4812ADC8
:1084C00001900063EFF012AE3F7F4712AD019000C4
:1084D00064EFF012AE3F900064E0FF900065E0FCB6
:1084E000A3E0FD900CB975F006ED1240BCEC75F000
:1084F00006A42583F583EFF0900063E0FF9000650C
:10850000E0FCA3E0FD900CBA75F006ED1240BCEC67
:1085100075F006A42583F583EFF0900063E4F090F6
:108520000064E4F02290000CEEF0A3EFF090000C59
:10853000E0FEA3E0FF900010EEF0A3EFF07F491201
:10854000AD0190000EEFF012AE3F7F4A12AD0190E8
:10855000000FEFF012AE3F90000FE0FF900010E030
:10856000FCA3E0FD900C1D75F006ED1240BCEC750F
:10857000F006A42583F583EFF090000EE0FF900055
:1085800010E0FCA3E0FD900C1E75F006ED1240BC5F
:10859000EC75F006A42583F583EFF090000EE4F06F
:1085A00090000FE4F07F4B12AD0190000EEFF0123F
:1085B000AE3F7F4C12AD0190000FEFF012AE3F9036
:1085C000000FE0FF900010E0FCA3E0FD900C1F7591
:1085D000F006ED1240BCEC75F006A42583F583EFA0
:1085E000F090000EE0FF900010E0FCA3E0FD900C86
:1085F0002075F006ED1240BCEC75F006A42583F55D
:1086000083EFF090000EE4F090000FE4F07F4D1245
:10861000AD0190000EEFF012AE3F7F4E12AD019013
:10862000000FEFF012AE3F90000FE0FF900010E05F
:10863000FCA3E0FD900C2175F006ED1240BCEC753A
:10864000F006A42583F583EFF090000EE0FF900084
:1086500010E0FCA3E0FD900C2275F006ED1240BC8A
:10866000EC75F006A42583F583EFF090000EE4F09E
:1086700090000FE4F02275090012A018EF700302B9
:1086800087BFE509C3940640030287BF1296948F03
:1086900008E5221240F186A90086E20186FF0287E2
:1086A0003403879A04000086798526258527268548
:1086B0000827E526B43A13E527B43A0E7525007568
:1086C000260075270075220180AFE525B43FAAE595
:1086D00026B40DA5E527B40AA07F007E0012A7648A
:1086E00080979008E5E0FFE5086F6004E5087004F6
:1086F000C2008002D20075240075220202867985AC
:108700000824E524D3940150097524007522000241
:108710008679E524D39480400975240075220002EF
:10872000867975230020000675220302867975225A
:1087300004028679AF2374342FF582E43415F5836F
:10874000E508F00523E523C395245003028679202C
:10875000003AAF247E007B017A157934C003C00251
:10876000C0017B017A0D7956A801AC02AD03D0019E
:10877000D002D00312427DAF247E00900DD6EEF0E1
:10878000A3EFF0900DDA7401F012908D752300754F
:10879000240075220005090286791524AF24EF60B4
:1087A000030286797523007524007F0112B1447F8E
:1087B0000012B144752200050902867902867922E9
:1087C0007F007E007D007C0090164812409F9076CE
:1087D000007410F09070107401F0907019E4F07B48
:1087E000027A7879007DC07C0212B204907802741B
:1087F00001F090780374A3F07B027A787904C003C7
:10880000C002C0017BFF7AB6798FAF01AE02AD0323
:108810007C00EF54FFFFEE54FFFEED5400FDEC54DE
:1088200000FCAD07AC06D001D002D00312B2047B2D
