:40000000021415008F828E83E0540100000070F82278FFE4F6D8FD02147A900000EFF0E4F53FF540F541F54275430AC200121F87EF60057F00121FB7122067D2AF9044F4FC
:4000400074FDF0E4F53B754900754A00754B37900000E0FF70067EFF7FFF80008F4C7B017A0079017D2C7C011212FA8F3E900000E060021543E5436004E53E70C9E53E6046
:400080000302059FC3E5389407E53794004008900001E064016005753B04807E900004E0FE900003E0FDEEF53FEDF54074062540F5827400353FF583E0FE74052540F58228
:4000C0007400353FF583E0FDEEF53CEDF53DE5402407FFE4353FFED3EF9538EE95374005753B03803574072540F5827400353FF583E064176005753B04801F7B017A0079B1
:4001000001E5402404FDE4353FFC121C66EF653D7003EE653C6003753B08E4F539F53AE53B600302058E900005E0F536753B04900002E012088801553101823202083403A0
:400140007A3503883703D438020839040F3A05783B0000058B20000302058EE540453F600302058EFF120D84EF70047F0180027F00900005EFF0753900753A01E4F53B0260
:40018000058E20000302058EE5406401453F600302058EE536C39401400302058E900357E0FEA3E0F5828E83120842E4FBFA7901F81207188F24E536B5241E900357E0FE6B
:4001C000A3E0F5828E83120842E4FB7A01F9F81207187522008F238014E536D395244007E4F522F5238006752201752300E523900005F0E522A3F0A374FFF0E4A3F0F539B6
:40020000753A04F53B02058E900002E06434703C20000302058EE5406403453F600302058EE536C39440400FE536D3947F50087541007542108006754101754220AE41AF47
:40024000427D007B017A01792D1208FF20000302058EC3E5409403E53F9400500302058EE54024FDFFE53F34FFFE742D2542F974013541A801FC7D017B017A0079081209F7
:40028000E7E54024FDFFE53F34FFFEEF2542F542EE3541F541E536C394404012E536D3947F500B121DA8753F007540108006753F01754020E54265407004E541653F600369
:4002C00002036F900007E0FE900006E0FDEEF541EDF542E536D3943F506FE5367F00FEEF2542FFE5413E900259F0A3EFF0900357E0FEA3E0F5828E83120842E4FB7A01F9AA
:40030000F812071890025BEEF0A3EFF0900357E0FEA3E0F5828E83120842EFE4EF600A90025BE475F0011205DA90025BE0FEA3E0FFC390025AE09F900259E09E500B753BD5
:400340000AE4F541F54202058E7B017A01792D900263E53FF0A3E540F0AD42AC41AF36120F0BEF60047F0A80027F008F3B8003753B03E4F541F54202058E20000302058EC7
:40038000E4F541F54202059F20000302058EE5422540FFE541353FFED3EF942CEE9401502DE4F53BAE3FAF40742D2542F974013541A801FC7D017B017A0079051209E7E58F
:4003C000402542F542E53F3541F54102058E753B0302058EE540453F600302058E78257C00FD7BFF7A25791FFE7F081209E7D200753900753A08AE39AF3A78057C007D0105
:400400007B007A0079251209E7E4F53B02058E20000302058EE5406403453F600302058E900007E0FE900006E0FDEEF52FEDF530E536C394404038E536D3947F5031AE2F29
:40044000AF307C007D101208D28F348E338D328C318F4B8E4A8D498C48E4754F10F54EF54DF54CFF7E80FDFC12192C8F358050AE2FAF307C017D001208D2C004C005C006FC
:40048000C007AF36E4FCFDFEFBFA7901F812068DD003D002D001D0001206728F348E338D328C318F4B8E4A8D498C48E4F54F754E01F54DF54CFFFE7D10FC12192C8F35E588
:4004C00036D3943F5072AF367E007C207D001208D2E42FFFE43EFEED3408FDE43CFCC004A905AA06AB07AE2FAF307C007D201208D2D0001206728F348E338D328C31E4F5BA
:400500002DF52EC3E52E9420E52D9400502AE4E52E2534FFE52D3533FEE43532FDE43531A907AA06AB05121CF3EF2535F535052EE52E7002052D80CBE536702AAE2FAF301E
:40054000FCFD7BFFFAF9F8C31207C57019FD7F05120A3DC3E5359FF535E4FD7F06120A3DC3E5359FF535E535F404900005F0E4F53BF539753A018016E4FF120D84EF700604
:400580009046FA7480F01220718003753B057B017A007901853948853A49AF3B1215ED900000E0700302004330000302004322BB010689828A83E0225002E722BBFE02E399
:4005C0002289828A83E49322BB010689828A83F0225002F722BBFE01F322C5F0F8A3E028F0C5F0F8E582158270021583E038F022BB010A89828A83E0F5F0A3E022500687B6
:40060000F009E71922BBFE07E3F5F009E3192289828A83E493F5F074019322BB010789828A830205DA500B09C5F027F7C5F01937F722BBFE0D09F8E325F0F3C5F019E338A6
:40064000F322F889828A8374019325F0C5F0F8E4933822BB010A89828A83F0E5F0A3F0225006F709A7F01922BBFE06F3E5F009F31922EF2BFFEE3AFEED39FDEC38FC22C315
:40068000EF9BFFEE9AFEED99FDEC98FC22E88FF0A4CC8BF0A42CFCE98EF0A42CFC8AF0EDA42CFCEA8EF0A4CDA8F08BF0A42DCC3825F0FDE98FF0A42CCD35F0FCEB8EF0A47C
:4006C000FEA9F0EB8FF0A4CFC5F02ECD39FEE43CFCEAA42DCE35F0FDE43CFC2275F008758200EF2FFFEE33FECD33CDCC33CCC58233C5829BED9AEC99E58298400CF582EE4A
:400700009BFEED9AFDEC99FC0FD5F0D6E4CEFBE4CDFAE4CCF9A88222B800C1B90059BA002DEC8BF084CFCECDFCE5F0CBF97818EF2FFFEE33FEED33FDEC33FCEB33FB10D7C4
:4007400003994004EB99FB0FD8E5E4F9FA227818EF2FFFEE33FEED33FDEC33FCC933C910D7059BE99A4007EC9BFCE99AF90FD8E0E4C9FAE4CCFB2275F010EF2FFFEE33FE50
:40078000ED33FDCC33CCC833C810D7079BEC9AE899400AED9BFDEC9AFCE899F80FD5F0DAE4CDFBE4CCFAE4C8F922EF4BFFEE4AFEED49FDEC48FC22C3E49FFFE49EFEE49D2F
:4007C000FDE49CFC22EB9FF5F0EA9E42F0E99D42F0E89C45F022E8600FECC313FCED13FDEE13FEEF13FFD8F122E8600FEFC333FFEE33FEED33FDEC33FCD8F122BB010789DC
:40080000828A830208365005E9F8020A0DBBFE05E9F8020A1989828A83020842BB010789828A8302085E5005E9F8020A25BBFE05E9F8020A3122E0FCA3E0FDA3E0FEA3E06A
:40084000FF22E493FC740193FD740293FE740393FF22E0F8A3E0F9A3E0FAA3E0FB22ECF0A3EDF0A3EEF0A3EFF022E0FBA3E0FAA3E0F922EBF0A3EAF0A3E9F022E493FB74E9
:400880000193FA740293F922D083D082F8E4937012740193700DA3A393F8740193F5828883E4737402936860EFA3A3A380DFE5092582F582E5083583F583B50804858209B7
:4008C0002210AF06858209F50822858209F508D2AF22EC8EF0A4CCC5F0CCCDF8EFA4CEC5F02DFDE43CFCE8A42EC8C5F03DFDE43CFCEFA4FFE5F028FEE43DFDE43CFC22EF51
:400900004E6012EF60010EEDBB010B89828A83F0A3DFFCDEFA2289F05007F709DFFCA9F022BBFEFCF309DFFCA9F022E709F608DFFA8046E709F208DFFA803E88828C83E7AA
:4009400009F0A3DFFA8032E309F608DFFA806EE309F208DFFA806688828C83E309F0A3DFFA805A89828A83E0A3F608DFFA804E89828A83E0A3F208DFFA804280D280FA80F3
:40098000C680D4805580F28029801080A680EA809A80A880DA80E280CA802988848C8589828A83E493A30586F0A30586DFF5DEF3800B89828A83E493A3F608DFF9ECFAA95D
:4009C000F0EDFB2288848C8589828A83E0A30586F0A30586DFF6DEF480E389828A83E493A3F208DFF980D688F0EF60010E4E60CD88F0ED2402B4040050C3F582EB2402B455
:400A0000040050B9232345822390097B73E6FC08E6FD08E6FE08E6FF22E2FC08E2FD08E2FE08E2FF22ECF608EDF608EEF608EFF622ECF208EDF208EEF208EFF22290025D03
:400A4000EDF0AB079002627402F0E4FFFEFDFCA312085EEB1208880A79010AA6020ACB030AF0040B15050B40060B8F070B6B080BB3090BD70A00000C0190025DE0FF7E005E
:400A80007C017D001208D21207B7EF24C0FFEE34FFFEED3410FDE43CFCA312085E9002627401F0020C0C90025DE0FF7E007C017D001208D2C374C39FFF74FF9EFE74109DBD
:400AC000FDE49CFCA312085E020C0C90025DE0FF7E007C017D001208D2C374C79FFF74FF9EFE74109DFDE49CFCA312085E020C0C90025DE0FF7E007C017D001208D2C37433
:400B0000CB9FFF74FF9EFE74109DFDE49CFCA312085E020C0C90025DE0FF7E007C017D001208D2C374D09FFF74FF9EFE74109DFDE49CFCA312085E9002627401F0020C0C60
:400B400090025DE0FF7E007C017D001208D2C374D19FFF74FF9EFE74109DFDE49CFCA312085E9002627401F0020C0C90025DE0FF7E007C017D001208D2C374D69FFF74FF16
:400B80009EFE74109DFDE49CFCA312085E807D90025DE0FF7E007C017D001208D2C374D29FFF74FF9EFE74109DFDE49CFCA312085E805990025DE0FF7E007C017D00120811
:400BC000D2C374D49FFF74FF9EFE74109DFDE49CFCA312085E803590025DE0FF7E007C017D001208D2C374D89FFF74FF9EFE74109DFDE49CFCA312085E9002627404F08082
:400C00000BE4FFFEFDFC90025E12085E900262E0B4011990025E120836A907AA06AB05121CF3E4FCFDFE90026312085E900262E06402705C90025E120836EF2401FFE43E91
:400C4000FEE43DFDE43CA907AA06AB05121CF3E4FCFDFE90026312085E900263120852C000C001C002C00390025E120836A907AA06AB05121CF3E4FCFDFE78081207E9D0BA
:400C800003D002D001D0001207AA90026312085E900262E064046003020D7D90025E120836EF2403FFE43EFEE43DFDE43CA907AA06AB05121CF3E4FCFDFE90026312085E37
:400CC000900263120852C000C001C002C00390025E120836EF2402FFE43EFEE43DFDE43CA907AA06AB05121CF3E4FCFDFE78081207E9D003D002D001D0001207AA9002634F
:400D000012085E900263120852C000C001C002C00390025E120836EF2401FFE43EFEE43DFDE43CA907AA06AB05121CF3E4FCFDFE78101207E9D003D002D001D0001207AA84
:400D400090026312085E900263120852C000C001C002C00390025E120836A907AA06AB05121CF3E4FCFDFE78181207E9D003D002D001D0001207AA90026312085E90026356
:400D8000120836228F44AD447F03120A3DEF2401FFE43EFEE43DFDE43CFCE4FB7A01F9F812068DC004C005C006C007AD447F04120A3DD003D002D001D0001206728F4C8EA9
:400DC0004B8D4A8C49C201E4F54DAD447F03120A3DEF2401FFE43EFEE43DFDE43CFCE4FB7A01F9F812068D8F488E478D468C45AF4CAE4BAD4AAC49AB48AA47A946A845C337
:400E00001207C55032854882854783E493F54E6005F46002D201E54E254DF54DAF48AE47AD46AC45E47B01FAF9F81206728F488E478D468C4580B8AD447F03120A3DEF2479
:400E400001FFE43EFEE43DFDE43CFCE4FB7A01F9F812068D78031207D68F488E478D468C45E47FC07EFFFDFCAB4CAA4BA94AA849C31207C57007FF7E20FDFC800DAF4CAE21
:400E80004BAD4AAC4978031207D68F4C8E4B8D4A8C49AF4CAE4BAD4AAC49AB48AA47A946A845C31207C55039E42548FFE43547FEE5463408FDE43545A907AA06AB05121CB9
:400EC000F3EF254DF54DAF48AE47AD46AC45E47B01FAF9F81206728F488E478D468C4580B1E54DF404F54DAD447F01120A3DA804A905AA06AB07AF4DE4FCFDFEC31207C5CC
:400F000070032001037F06227F002290025EECF0A3EDF0A312087390025DEFF0E4900265F0EFD3943F500E90025DE0940140069002657401F090025DE0FFD3947F4006903A
:400F400002657401F0EFC39440400CEFD3944140069002657401F0EFD3943F501E90025EE0FEA3E0FFE4FCFDFB7A01F9F8C31207C5502F9002657401F08027D390025FE03C
:400F8000948090025EE0940040069002657401F0900263E07004A3E0641060069002657401F090026012086AE94A4B700590026504F0900265E0600302108A121EFEEF606E
:400FC0000302108490025EE0FCA3E0FDA312086A900263E0FFA3E090026CCFF0A3EFF090025DE0FF1211DE900265EFF06407600302107F904722E0540270087F01FE121EF6
:401000006480F0904722E054026009E0FF1313543FFF80027FFFEF7006900265F0800690026574FFF0900265E0705490025DE0FFA3E0FCA3E0FD900353E0FBA3E090026AD9
:40104000F0121A90900265EFF064077032904722E0540270087F01FE121E6480F0904722E054026009E0FF1313543FFF80027FFFEF7006900265F0800690026574FFF0124B
:40108000205180069002657404F0900265E0FF227B007A4679E8121CF3EF4401FD7B007A4679E8122045E4F52CE52CC3940A502CE52C75F005A42461F582E43424AF82F571
:4010C000218F22F58312087C8F82852183740393FC740493FD121F6E052C80CDE4F52CE52CC394015046E52C75F007A42413F582E43425AF82F5238F24F58312087C8B25E1
:401100008A2689278F82852383740393FE7404938E28F529740593F52A740693F52BAD29AC28FFAE2A121EB8052C80B37E207F92121DD97B017A507903121CF3EF4402FD3B
:401140007B017A5079031220457B017A507913121CF3EF4402FD7B017A5079131220459043A0E04440F09043C2E04410F07C207D827B007A5179127F087E00121EB87C2053
:401180007D8A7B007A5179227F087E00121EB89044F47401F0904322E04408F09046ECE0C394055006904689743AF090480074F1F012150690480074B1F0121F1D7B007A41
:4011C0004379A0C00179B0900005120873D0017F0E7E00121D749043B0E054FDF022900266EFF0A3ECF0A3EDF0A312087390026E7407F0904722E0540270030212EE904756
:401200002074B6F074D5F07402F0904722E0540260030212E6900266E0904720F0E490026FF0A3F090026CE0FEA3E0FF90026FE0FCA3E0FDC39FEC9E501F90026912086A8D
:40124000E92DF9EA3CFA1205AF904720F090026FE475F0011205DA80CB90026CE064017002A3E060030212F4900266E0FFD3943F40030212F47E007C207D001208D2E42F0A
:40128000FFE43EFEED3408FDE43CFCC004A905AA06AB07A3E0FEA3E0FF7C007D201208D2D00012067290027112085EE490026FF0A3F090026FE0FEA3E0FFC39420EE94005A
:4012C0005032E4FCFDA3120852120672A907AA06AB05121CF3904720EFF090026FE475F0011205DA80CC90026E7409F0800690026E7404F090026EE0FF228B448A4589469E
:401300008C478D48755505E4F54DF54EE54C75F00AA4FFC3E54E9FE54D95F0503B121B34EF6022121B347553008F54E47F19FEFDFC1218C7121B34D3EF9554E4955350E366
:40134000E4F5558013E47F01FEFDFC1218C7054EE54E7002054D80B4AB49AA4AA94BE4F5F0120653E4F54FF550121B34EFD394005003021412121B347551008F52AB49AA8D
:401380004AA94BE5518552F012061BAB49AA4AA94B1205F0C39548E5F09547505FE4F54DF54EC3E54E9552E54D95515025121C1CAB44E5462550F9E545354FFAEF1205C8C1
:4013C0000550E5507002054F054EE54E7002054D80D0AB44E55024FFFFE54F34FFFEE5462FF9E5453EFA1205AF64177003021369E47F05FEFDFC1218C7021369AB49AA4ABB
:40140000A94B1205F0C39552FFE5F095518FF0120653AF552275930078007583467582E8E04401F0009046ECE0F99046FAE0FA90034BF0B903225420B40012B8001AEA9014
:401440001FFFF07401901FFEF09046F6F0901FFEE06005901FFFE0FA90480074C0F0758156121EDE90000078007920E4F0A3D8FCD9FAEA90034BF002001175081F7509FD1F
:401480001210900214C1022079E493A3F8E493A34003F68001F208DFF48029E493A3F85407240CC8C333C4540F4420C8834004F456800146F6DFE4800B0102040810204063
:4014C00080901B83E47E019360BCA3FF543F30E509541FFEE493A360010ECF54C025E060A840B8E493A3FAE493A3F8E493A3C8C582C8CAC583CAF0A3C8C582C8CAC583CABE
:40150000DFE9DEE780BE7B007A4079807D337C001220279040827418F09043007402F09040007408F09042007403F07B0C7A017908121CF39046A1EFF07B007A4279227D68
:40154000087C001220277B007A4279207D517C12122027E4900004F07F19FEFDFC90000012085E900000120836D3EF9400EE9400403B900004E0FF64036032904225E05440
:4015800001FEEF25E04E5403900004F0E47FE07E01FDFC121D0090000012083674FFFBFAF9F812067290000012085E80B6900000120836EF4E70057F0312207F7B007A402A
:4015C00079047D007C011220279040047407F0904006E4F09040087448F0904004E4F09040017402F09043A2E04401F0228B458A46894774011205C8AB452547F9E43546AB
:40160000FAEF1205C8E549AB45E5472402F9E43546FAE5491205C8E548FFAB45E5472403F9E43546FAEF1205C8AB45AA46A947E5492404FDE43548FC121C668E4A8F4BEFCF
:40164000AB45E5492404FDE43548FCE5472DF9E5463CFAEF1205C8E54AFFAB45E5492405FDE43548FCE5472DF9E5463CFAEF1205C8AB45E5492406FFE43548FEE5472FF9FF
:40168000E5463EFA74171205C8E5492407FDE43548FC755100755200755348755496AB45AA46A947121BD122C0E0C083C082C085C084C086758600C093759300C0D075D09F
:4016C00000C001C002C003C006C007E4FBA2AF33FAD2AF9044F474FDF090646CE0FFFE541EF960069002FDE049F0EF30E54590644AE0FE9002F9E02478F582E43402F583E5
:40170000EEF07B01EB602C900276E060069002FC7401F09002F9E004F0E0C394404002E4F0900277E0FE9002F9E0B506069002767401F0EF20E5A2AF02EA24FF92AFD007BF
:40174000D006D003D002D001D0D0D093D086D084D085D082D083D0E032752106E4FF120D84EF7002F521E4F54BF54AF549F548900357E0FEA3E0F5828E831208428F4F8E82
:401780004E8D4D8C4CE4FFFE7D10FC12192C900355E0FCA3E0F5828C83E493FEC3EF9EFFF404FFB50612900357E0FEA3E0F5828E83120842EF4E70057F00121FB79046FAFB
:4017C000E054C064406004E52160099046FAE4F0FF12001A12205D22C0E0C083C082C085C084C086758600C093759300C0D075D000C006C007A2AFE433FFD2AF9044F4742E
:40180000FDF09002FAE0FE9002B8E06E602C90646EE020E2259002B8E0C394404002E4F09002B8E024B9F582E43402F583E090644DF09002B8E004F080C8EF24FF92AFD043
:4018400007D006D0D0D093D086D084D085D082D083D0E032A9079002FAE0FF9002B8E0FEEFC39E501AEE24FFFDE434FFFCEF7A00B50508EAB504047D0180027D00800CC346
:40188000EF9EB43F047D0180027D00ED70C8EEB5070D90646EE020E20690644DE9F022EFC394404002E4FF74B92FF582E43402F583E9F00F9002FAEFF090646EE030E10609
:4018C0009044D07402F02290FFFC1208AE12085E850883850982120836D3EF9400EE9480402E90034C120836121D00850883850982C083C082120836E42FFFEE3480FEEDC9
:4019000034FFFDEC34FFFCD082D08312085E80C090034212083685088385098212085212068D121D009000041208AE228F478E468D458C44E4F550D3E54F9400E54E940025
:40194000404BAF4FAE4EAD4DAC4C74FFFBFAF9F81206728F4F8E4E8D4D8C4CE547254BFFE546354AFEE5453549FDE5443548FCEF254FFFEE354EFEED354DFDEC354CA907BD
:40198000AA06AB051205AF2550F55080AAAF5022121FE190025E74FFF0121EFEEF703B7F01121E35EF6407702C7B017A0379537D021219E6EFB40215E490025EF090472228
:4019C000E0540270107F01FE121E6480F0904722E0540260D4122051800690025E7404F090025EE0FF2290025F120873900262EDF0E4A3F0900262E0FFA3E0C39F50379065
:401A00004722E054016003D38001C340097F017E00121E6480E9904720E0FF90025F12086A900263E029F9E43AFAEF1205C8900263E004F080BE900263E0FF2290025EEC49
:401A4000F0A3EDF090025DEFF0541F25E0FFE433FEE42FFFEE3444FAA9077B0112201A900260EEF0A3EFF090025DE075F002A42400FFE5F03444FAA9077B01A3E0FEA3E0EC
:401A8000FFFDAC06122029900260E0FEA3E0FF22900267ECF0A3EDF0AC077D07904722E05402603B90472074B6F074D8F07405F0904722E054027023904720ECF09002670F
:401AC000E0904720F0900267E0A3E0904720F0EBF090026AE0904720F080067D0980027D04AF0522121FE1121EFEEF703B121F3A90025EEFF06407702A904722E0540270A1
:401B0000087F01FE121E6480F0904722E054026009E0FF1313543FFF80027FFFEF700490025EF0122051800690025E7404F090025EE0FF229044C87401F09002F9E0FE905D
:401B40000277E0B5060E900276E060047F40802CE4FF80289002F9E0FE900277E0C39E500BE0FE9002F9E0C39EFF8010900277E0FEC374409EFE9002F9E02EFF9044C07420
:401B800001F022420355251A420357251B430350000000440347016E360044034200005DC04103461844034C2EE000004102FB004102B8004102FA004102FD00410277003B
:401BC0004102F900410276004102FC0041035B00008B4C8A4D894E8C4F8D50E4F555F556121E07C3E5569550E555954F501DAB4CE54E2556F9E54D3555FA1205AFFF121874
:401C0000540556E5567002055580D8AB51AA52A953E54F8550F01206537F00229044C87401F0900277E0FE9002F9E0FD900276E07004EE6D602474782EF582E43402F583EF
:401C4000E0FF0EEEC394404002E4FE900277EEF0900276E06009E4F0800590644AE0FF9044C07401F0228B4C8A4D894EE4F54FF550D3ED9400EC94004025AB4CED24FFFFD4
:401C8000EC34FFFEE54E2FF9E54D3EFA1205AF2550F550E4354FF54FED1D70011C80D2E550F4FFE54FF4FEEF2401FFE43EFE227C167DA8E4FF121A3C7D07E4FF121F55E4B7
:401CC0009002FDF090648A7469F090648C7420F07C177DD87F01121A3C7D077F01121F5590642E7406F090643E7447F090648E7402F0228B938A838982E0759300FF22000A
:401D0000EC4D4E700D78FCEF24E950032840FD2200007BF178DA0000EF28FF78FFEE38FEED38FDEC38FC50E7EF2BFFEE38FEED38FDEC38FC40F22205020304121FCC9002FD
:401D40005DEFF090649AE04420F090649CE04410F09044C07401F090649EE04410F09044D87402F09044C0F012203690025DE0FF121F9F22758600EF4E6027EF60010E75B2
:401D80009300900005E0F595A3E0F585A3E0F5848B938A838982E0A30586F0A31586DFF6DEF4E4F593F59522121FCC9043A0E04408F09043B0E04408F090470174C8F090A8
:401DC00043ACE04410F09043BCE04410F0904700E0542060F8121F9F22ACEAADA08E838F82E493F9601CA3E493F5EAA3E493F5A0A3E49360F1FAA3E493F8A3E493F2DAF6BC
:401E0000D9E48DA08CEA22121FCC90649AE04401F0E054FEF0121F9F9044C87401F0E4900277F09002F9F0900276F09002FCF09044C004F0227E07904722E05402601F9052
:401E4000472074B6F074E1F0740EF0904722E054027007904720EFF080067E0980027E04AF062200EEFA900346E0F88FF0A4FFAEF0E88AF0A42EFEE5F03400FDEF24C9FF5A
:401E800078FFEE38FEED38FDE438FC5003021D0022121FCC90649DE04401F0E054FEF0121F9F9044C87402F0E49002B8F09002FAF09044C07402F022758600EF4E601BEFCA
:401EC00060010E8C838D828B958A858984E493A30586F0A31586DFF5DEF3E4F595229046FAE054C064807015F0FD7F02120A3DEF4E600AE4FD7F02120A3D122009229002CC
:401F0000667404F0121FCC90035BE0700704F0E4900266F0121F9F900266E0FF227B0C7A0179CF121CF3EF540790586EF0EFC4540FA3F09058767444F0227F07904722E0DD
:401F40005402600E90472074B6F074E0F0740DF080027F0422AC07ED540775F020A4FFEC541F2480F582E43444F583EFF022EC4D6011ED60010C8B938A838982E4F0A3DDB0
:401F8000FCDCFA75930022121AE490025DEFF0700812199090025DEFF090025DE0FF22EF54016004D2AF8002C2AFEF5402FF9044F4E054FD4FF02290FFFF1208AEEFF090D7
:401FC00046EA7401F09000011208AE229044F4E0F84402F0E85402FF10AF012274014FFF22121FCC9043A0E04408F09043B0E04408F0121F9F229002FBE07009121CAF9087
:4020000002FB7401F0121D3B2290034BE0FA8E838F827400758101738B938A838982E0FFA3E0FE759300228B938A838982EDF0A3ECF0759300229043A2E04401F09043B26F
:40204000E04401F0228B938A838982EDF075930022121FCCE490035BF0121F9F229046FA7480F012207122121FF6121E07121E91229046F6E04401F02212175980FE2280DC
:40208000FE22007F7B007B00000030D8C800D800000016005205082309121098118814200064047E3F8A698C3A8E0F010101E204010301E6020105028702E008010604B82E
:4020C00002BE01D804DF010107021B02A702010A088501890195019901B101BF01D904DF01010B4F00400106038808010A040B111028130219641A041B0A202021082230E9
:40210000274028282A022B022E033080310232103304340836203708382239803A083C283E084028410843824A024B0152045B4068286A016B027090712072108D408E104D
:402140008F809042910493109621980199029B0C9D649E049F80A004A102A202A490A520A702AB01B021B405B602B744C00FC20FC40ECA0FCC6FCE6FD00FD208D608E0083A
:40218000E801010C4C0001021608E70A180E3F101E120114C6163918481C88208824DD262228232ADC2CC8301F320834E03A22541A560458045B045F018008824284F88698
:4021C000018704880F89028AF08D068EC792849308943996C698109C20A020A101A43FA6C0A906AA08AC30B031B106B308B501B6FFB702B982BE40BF11C062C101C5E0C6DA
:40220000CBC80EC9FFCAFFCBFFCEF0CF44D00CD804D904DA04DF01E6C0EA40EB02010D46002901100210030B04010709080209260A310D220E11108012481388151016502C
:402240001780180219021C081D021E201F20200421012208230128402920320238C839A43A083B10414042084921502053405E205F026540674887409088912093089502C2
:40228000978098409B4A9C029D259E049F04A420A504A72AB001B301C0DFC2FFC4FFCA05CC01CE0ED00CD204D6A0D8B0010E4E040906D007230B080C0C0D210E710F0E1048
:4022C00014141016AC170C18DC1A221B201E0321102410264029212A202B062D0C2F2330E03310350F361F37203A023B203F444004464049FF4A074BFF4C404D204EF04F8A
:4023000005500854015604580459045A045B045F01604061A862406320871F89198B0691019304950997029A01A506A719A919AA01AB06AF0FB201B310B507B708B908BB65
:4023400020BE04D804D904DB04DF01010F3C004404040504084809200A010B800E0810081210160418C01A011F042130224425102604270A280829212A802F2A303031047A
:402380003402370438883A103D284101500C5210581059015A886380680169046A206B406F0171407304821083408550868089048B04C005C24FC446CA7DCCC6CE6ED00101
:4023C000D60FD801E40C014005322035808180CC30E2200141038620A620E6400144058301870188C0E004E40401450F0C0857025B046401660193029889A040A301B009C2
:40240000C204D607D801E801EC0401460D8702900893029888A040A301A702AB04B40CB601E808EC02EE08014705900893029888A040A301014C0E5004544057015808607D
:40244000806702900893029888A040A301D406D607D80201500300010C010E01015101000F005100001000513000400051C000100051F000100100000A00010A800580018E
:40248000140008000140000A00014C000200015000002000008080207D050000040800130C0400030204200A031410130C0C7300088000400800004043003C404F003000DE
:4024C0000000734000303F0FC0800008002028000040003402010005C0000E12FFFFFF62A0F0410C00000000000210040404040000000100000000000040020010301000CE
:4025000010101200000000000000000000000000000000010A002493008061000026006930091E031E010100000000000000000000000000000000000000000000000000BD
:40254000000000000000000000000000000000000000000000000000000000000000000000000000000000000000000000000000000000000000000000000000000000005B
:40258000000000000000000000000000000000000000000000000000000000000000000000000000000000000000000000000000000000000000000000000000000000001B
:4025C00000000000000000000000000000000000000000000000000000000000000000000000000000000000000000000000000000000000000000000000000000000000DB
:40260000028A25008F828E83E0540100000070F82278FFE4F6D8FD028AB3900002EEF0A3EFF07BFF7A527908C003C002C0017B017A007904A801AC02AD03D001D002D003B4
:402640007E077F9F12427D9007A3E4F0A37406F09007A5E4F0A3E4F09007A7E4F0A37402F09007A5E0FEA3E0FF7C007D32123E2EAA06AB079007A3E0FEA3E0FF7C007D32BD
:40268000123E2EEF2BFDEE3AFC900C1CE0FF7E32EF8EF0A4FFAEF0ED2FFFEC3EFEEF245FFFEE3401FE9007A9EEF0A3EFF09007ABE4F0A3E4F07BFF7A5979A7C003C002C0B8
:4026C000017B017A0779ADA801AC02AD03D001D002D0037E007F1A12427D7BFF7A5979C1C003C002C0017B017A0779C7A801AC02AD03D001D002D0037E007F0B12427D7B76
:40270000FF7A5979CCC003C002C0017B017A0779D2A801AC02AD03D001D002D0037E007F1412427D7BFF7A5979E0C003C002C0017B017A0779E6A801AC02AD03D001D002A3
:40274000D0037E007F1012427D7BFF7A5979F0C003C002C0017B017A0779F6A801AC02AD03D001D002D0037E007F2A12427D7BFF7A5A791AC003C002C0017B017A0879200D
:40278000A801AC02AD03D001D002D0037E007F1A12427D7B017A0779E612B0D78F137B017A0779AD12B0D78F147B017A0779C712B0D78F157B017A0779D212B0D78F167B43
:4027C000017A0779F612B0D78F177B017A08792012B0D78F187BFF7A5A7934C003C002C0017B017A08793AA801AC02AD03D001D002D0037E007F7612427D7B017A08793A6E
:40280000C003C002C0017BFF7A4F79819008B31240E89008B6E4F0A3740AF09008B8E4F0A37464F0D001D002D0031267187B017A08793A12B0D78F19900C1CE0FFEFC31379
:40284000FF7E009007A5EEF0A3EFF09007A5E0FEA3E0FFEF25E0FFEE33FE900C1CE0FD7C00C3ED9FFFEC9EFED3EF9400EE9400400A9007A5E475F001123E409007A5E0FE58
:40288000A3E0FF7C007D32123E2EAA06AB079007A3E0FEA3E0FF7C007D32123E2EEF2BFDEE3AFC900C1CE0FF7E32EF8EF0A4FFAEF0ED2FFFEC3EFEEF242DFFEE3401FE90E5
:4028C00007A9EEF0A3EFF09007A5E0FEA3E0FF9007A3E0FCA3E0FDED2FFFEC3EFEEF2403FFEE3400FE9007A7EEF0A3EFF0900004740CF09007A5E0FEA3E0FF9007A3E0FCCA
:40290000A3E0FDAE05EE2FFF900C1CE0FEEF2EFFEF2403FF900005EFF0900002E0FEA3E0FFEF8EF0124117292F0000000035589007ABE4F0A3E4F09000067402F09000073F
:402940007401F0900C1CE0FF900008EFF0AF147E008E0B8F0CE50C450B603EAF147E00C3EF950CFFEE950BFE74AD2FF58274073EF583E0FFAE14EEFD7C00C3ED950CFDEC37
:40298000950BFC74092DF58274003CF583EFF0E50C150C7002150B80BC9007ABE475F032123E40750B00750C00750F007510009007A3E0FEA3E0FFC3E5109FE50F9E400356
:4029C000022BAF7B017A0779C7C003C002C0017BFF7A4F79F59008B31240E89008B6E50FF0A3E510F0D001D002D0031267187511007512047B017A0779C712B0D78F159066
:402A000007ABE0FEA3E0FFAC0FAD108D828C8374321240ABE5822FF582E5833EF583E5822406F582E5833400F5837402F09007ABE0FEA3E0FFAC0FAD108D828C83743212AE
:402A400040ABE5822FF582E5833EF583E5822407F582E5833400F5837403F0AE0FAF107C007D03123E2E8E0D8F0EAE0FAF107C007D03123E2EEF2402FFEE3400FED3E50E9E
:402A80009FE50D9E4003022B3BAE0BAF0C743D2FF58274093EF583E0FF7E00EFB50E53EEB50D4FAE0BAF0C743D2FF58274093EF583E0FF9007ABE0FCA3E0FDE5122DFDE55C
:402AC000113CFCAA0FAB108B828A8374321240ABE5822DF582E5833CF583E5822404F582E5833400F583EFF0050CE50C7002050B80369007ABE0FEA3E0FFE5122FFFE51145
:402B00003EFEAC0FAD108D828C8374321240ABE5822FF582E5833EF583E5822404F582E5833400F58374FFF00512E51270020511050EE50E7002050D022A6AAF157E008EF2
:402B40000D8F0EE50E450D605BAF157E00C3EF950EFFEE950DFE74C72FF58274073EF583E0FBAE0FAF107C007D32123E2E9007ABE0FCA3E0FDEF2DFFEE3CFEAD157C00EF67
:402B80002DFFEE3CFEC3EF950EFFEE950DFE740B2FF58274003EF583EBF0E50E150E7002150D809F0510E5107002050F0229AF9007A3E0FEA3E0FF7C007D32123E2E9007A8
:402BC000ABEE8FF0123E40750F007510009007A5E0FEA3E0FFC3E5109FE50F9E4003022F569007ABE0FEA3E0FFAC0FAD108D828C8374321240ABE5822FF582E5833EF583CF
:402C0000E5822406F582E5833400F5837402F09007ABE0FEA3E0FFAC0FAD108D828C8374321240ABE5822FF582E5833EF583E5822407F582E5833400F5837403F0E510256E
:402C4000E0FFE50F33FE743D2FF58274093EF583E0FFEF75F003A4241FF582E4340DF583E0FF9007ABE0FCA3E0FDAA0FAB108B828A8374321240ABE5822DF582E5833CF543
:402C800083E5822408F582E5833400F583EFF0E51025E0FFE50F33FE743D2FF58274093EF583E0FFEF75F003A42420F582E4340DF583E0FF9007ABE0FCA3E0FDAA0FAB10C9
:402CC0008B828A8374321240ABE5822DF582E5833CF583E5822409F582E5833400F583EFF0E51025E0FFE50F33FE743D2FF58274093EF583E0FFEF75F003A42421F582E4D0
:402D0000340DF583E0FF9007ABE0FCA3E0FDAA0FAB108B828A8374321240ABE5822DF582E5833CF583E582240AF582E5833400F583EFF0E5102401FFE50F3400FEEF25E0D3
:402D4000FFEE33FE900C1CE0FD7C00C3ED9FEC9E506CAF167E008E0D8F0EE50E450D7003022F4BAF167E00C3EF950EFFEE950DFE74D22FF58274073EF583E0FBAE0FAF1047
:402D80007C007D32123E2E9007ABE0FCA3E0FDEF2DFFEE3CFEAD167C00EF2DFFEE3CFEC3EF950EFFEE950DFE740B2FF58274003EF583EBF0E50E150E7002150D809C90079E
:402DC000ABE0FEA3E0FFAC0FAD108D828C8374321240ABE5822FF582E5833EF583E5822407F582E5833400F5837406F0E51025E0FFE50F33FE743E2FF58274093EF583E054
:402E0000FFEF75F003A4241FF582E4340DF583E0FF9007ABE0FCA3E0FDAA0FAB108B828A8374321240ABE5822DF582E5833CF583E582240BF582E5833400F583EFF0E51077
:402E400025E0FFE50F33FE743E2FF58274093EF583E0FFEF75F003A42420F582E4340DF583E0FF9007ABE0FCA3E0FDAA0FAB108B828A8374321240ABE5822DF582E5833C0F
:402E8000F583E582240CF582E5833400F583EFF0E51025E0FFE50F33FE743E2FF58274093EF583E0FFEF75F003A42421F582E4340DF583E0FF9007ABE0FCA3E0FDAA0FABDC
:402EC000108B828A8374321240ABE5822DF582E5833CF583E582240DF582E5833400F583EFF0AF167E008E0D8F0EE50E450D605BAF167E00C3EF950EFFEE950DFE74D22FC7
:402F0000F58274073EF583E0FBAE0FAF107C007D32123E2E9007ABE0FCA3E0FDEF2DFFEE3CFEAD167C00EF2DFFEE3CFEC3EF950EFFEE950DFE740E2FF58274003EF583EB67
:402F4000F0E50E150E7002150D809F0510E5107002050F022BCD9007A5E0FEA3E0FF7C007D32123E2E9007ABEE8FF0123E407B017A0779E6C003C002C0017BFF7A5079012A
:402F80009008B31240E89007A7E0FEA3E0FFEF24FFFFEE34FFFE9008B6EEF0A3EFF0D001D002D0031267187B017A0779E612B0D78F139007ABE0FEA3E0FF74062FF582743C
:402FC000003EF5837402F09007ABE0FEA3E0FF74072FF58274003EF5837401F09008E5E0FF9007ABE0FCA3E0FD74082DF58274003CF583EFF0AF137E008E0B8F0CE50C4598
:403000000B604CAF137E00C3EF950CFFEE950BFE74E62FF58274073EF583E0FFAE13EEFD7C009007ABE0FAA3E0FBED2BFDEC3AFCC3ED950CFDEC950BFC74092DF582740047
:403040003CF583EFF0E50C150C7002150B80AE9007ABE475F032123E40750B00750C00900C1CE0FF7E00C3E50C9FE50B9E40030233217B017A0779F6C003C002C0017BFFE2
:403080007A5079119008B31240E89007A7E0FEA3E0FFEF250CFFEE350BFE9008B6EEF0A3EFF0AE0BAF0C743D2FF58274093EF583E0FF7E009008B8EEF0A3EFF0D001D002F2
:4030C000D0031267187B017A0779F612B0D78F179007ABE0FEA3E0FFAC0BAD0C8D828C8374321240ABE5822FF582E5833EF583E5822406F582E5833400F5837402F09007AA
:40310000ABE0FEA3E0FFAC0BAD0C8D828C8374321240ABE5822FF582E5833EF583E5822407F582E5833400F5837405F0AE0BAF0C743D2FF58274093EF583E0FFEF75F0056C
:40314000A424E8F582E43408F583E0FF9007ABE0FCA3E0FDAA0BAB0C8B828A8374321240ABE5822DF582E5833CF583E5822408F582E5833400F583EFF0AE0BAF0C743D2F72
:40318000F58274093EF583E0FFEF75F005A424E9F582E43408F583E0FF9007ABE0FCA3E0FDAA0BAB0C8B828A8374321240ABE5822DF582E5833CF583E5822409F582E5832D
:4031C0003400F583EFF0AE0BAF0C743D2FF58274093EF583E0FFEF75F005A424EAF582E43408F583E0FF9007ABE0FCA3E0FDAA0BAB0C8B828A8374321240ABE5822DF5829C
:40320000E5833CF583E582240AF582E5833400F583EFF0AE0BAF0C743D2FF58274093EF583E0FFEF75F005A424EBF582E43408F583E0FF9007ABE0FCA3E0FDAA0BAB0C8B07
:40324000828A8374321240ABE5822DF582E5833CF583E582240BF582E5833400F583EFF0AE0BAF0C743D2FF58274093EF583E0FFEF75F005A424ECF582E43408F583E0FF1D
:403280009007ABE0FCA3E0FDAA0BAB0C8B828A8374321240ABE5822DF582E5833CF583E582240CF582E5833400F583EFF0AF177E008E0D8F0EE50E450D605BAF177E00C39C
:4032C000EF950EFFEE950DFE74F62FF58274073EF583E0FBAE0BAF0C7C007D32123E2E9007ABE0FCA3E0FDEF2DFFEE3CFEAD177C00EF2DFFEE3CFEC3EF950EFFEE950DFE30
:40330000740D2FF58274003EF583EBF0E50E150E7002150D809F050CE50C7002050B02305F900C1CE0FF7E32EF8EF0A4FFAEF09007ABEE8FF0123E407B017A087920C003F5
:40334000C002C0017BFF7A50792C9008B31240E8900C1CE0FF7E009007A7E0FCA3E0FDEF2DFFEE3CFE9008B6EEF0A3EFF0D001D002D0031267189007ABE0FEA3E0FF740699
:403380002FF58274003EF583E4F09007ABE0FEA3E0FF74072FF58274003EF5837401F09008E7E0FF9007ABE0FCA3E0FD74082DF58274003CF583EFF09008E7E0FFEF124055
:4033C000F133CE0033F401341A020000343E7B017A087920C003C002C0017BFF7A5079419008B31240E8D001D002D00312A0F575181A804A7B017A087920C003C002C00126
:403400007BFF7A5079479008B31240E8D001D002D00312A0F575181980247B017A087920C003C002C0017BFF7A50794C9008B31240E8D001D002D00312A0F575181AAF18A6
:403440007E008E0B8F0CE50C450B604CAF187E00C3EF950CFFEE950BFE74202FF58274083EF583E0FFAE18EEFD7C009007ABE0FAA3E0FBED2BFDEC3AFCC3ED950CFDEC9572
:403480000BFC74092DF58274003CF583EFF0E50C150C7002150B80AEAF187E009007ABE0FCA3E0FDEF2DFFEE3CFE74092FF58274003EF5837401F09007ABE475F032123E26
:4034C00040AF197E008E0B8F0CE50C450B604CAF197E00C3EF950CFFEE950BFE743A2FF58274083EF583E0FFAE19EEFD7C009007ABE0FAA3E0FBED2BFDEC3AFCC3ED950C4C
:40350000FDEC950BFC74062DF58274003CF583EFF0E50C150C7002150B80AE7B017A0079049007A9E0FEA3E0FFEF14FD12A9AC9007A9E0FCA3E0FD74032DF58274003CF539
:4035400083EFF07B017A0079049007A9E0FCA3E0FD129D0A12AD56229007A7E0FEA3E0FFEF24FFFFEE34FFFE900002E0FCA3E0FDC3ED9FEC9E500302383C900C1CE0FF7E77
:40358000009007A7E0FCA3E0FDEF2DFFEE3CFE900002E0FCA3E0FDEFB5050FEEB5040B900D59E0FF900951EFF0229007A7E0FEA3E0FFEF24FFFFEE34FFFE900002E0FCA337
:4035C000E0FDEFB5050FEEB5040B900D59E0FF90094FEFF022900D59E0FF9007A7E0FCA3E0FD900002E0FAA3E0FBC3EB9DFDEA9CFC743D2DF58274093CF583E0FEEE75F0EC
:4036000005A42452F582E43409F583EFF0900D5AE0FF9007A7E0FCA3E0FD900002E0FAA3E0FBC3EB9DFDEA9CFC743D2DF58274093CF583E0FEEE75F005A42453F582E434F2
:4036400009F583EFF0900D5BE0FF9007A7E0FCA3E0FD900002E0FAA3E0FBC3EB9DFDEA9CFC743D2DF58274093CF583E0FEEE75F005A42454F582E43409F583EFF0900D5C05
:40368000E0FF9007A7E0FCA3E0FD900002E0FAA3E0FBC3EB9DFDEA9CFC743D2DF58274093CF583E0FEEE75F005A42455F582E43409F583EFF0900D5DE0FF9007A7E0FCA37F
:4036C000E0FD900002E0FAA3E0FBC3EB9DFDEA9CFC743D2DF58274093CF583E0FEEE75F005A42456F582E43409F583EFF09010DCE4F0A37401F0750B00750C00900C1CE07F
:40370000FF7E00C3E50C9FE50B9E4003023832AE0BAF0C743D2FF58274093EF583E0FFEF75F005A42453F582E43409F583E0FFEF75F006A4FFAC0BAD0C743D2DF5827409FD
:403740003CF583E0FEEE75F005A42452F582E43409F583E0FEEE75F006A4FEEE2FFFAC0BAD0C743D2DF58274093CF583E0FEEE75F005A42454F582E43409F583E0FEEE75A7
:40378000F006A4FEEE2FFFAC0BAD0C743D2DF58274093CF583E0FEEE75F005A42455F582E43409F583E0FEEEC454F0FEEE2FFFAC0BAD0C743D2DF58274093CF583E0FEEE4C
:4037C00075F005A42456F582E43409F583E0FEEE25E0FEEE2FFFEF2402FF7E00AC0BAD0C743D2DF58274093CF583E0FDED25E02450F582E43410F583EEF0A3EFF0AE0BAF9C
:403800000C743D2FF58274093EF583E0FFEF25E02450F582E43410F583E0FEA3E0FF9010DCEE8FF0123E40050CE50C7002050B0236FC9010DCE475F001123E4022023C0F3E
:40384000E86480F8E933E83360110460F0ED33EC337009E8FCE9FDEAFEEBFF220460DED3EB9FEA9EE99DE8C2E78CF0C2F795F0400CE8CCF8E9CDF9EACEFAEBCFFB123BDAE5
:4038800085D0F05804700320D5B3E80470075002B2D5023C1992D5EC0460F7E4CCC0E0C398F8603B94186008400DD0E0FB023BF1E4FBFAC9FC8028E830E406E4C9FBE4CAF5
:4038C000FCE830E305E4C9CACBFCE854076010F8C3E913F9EA13FAEB13FBEC13FCD8F130F52FC3E49CFCEF9BFFEE9AFEED99FDD0E0FBEF4E4D4C701222DB03023C16EC2CE3
:40390000FCEF33FFEE33FEED33FDED30E7EB023BF1EF2BFFEE3AFEED39FDD0E0FB50130BBB0003023C19ED13FDEE13FEEF13FFEC13FC023BF1EC4D6011E8497017ED33ECED
:403940003304600DE4FCFFFEFD22E933E8330470F8023C0F123BDA58046009E4CC24815006285009023C19284003023C16C0E0EB4A7044B98006D0E0FB023C05EF4E701C0A
:40398000BD8008EBFFEAFEE9FD80EBE98DF0A4FEE5F0023A1EE9CDF9EAFEEBFFEF89F0A4FCE5F0CE89F0A42EFFE435F0CD89F0A42DFEE435F08067EF4E7005BD80D780C3DB
:4039C000EF8BF0A4ACF0EE8BF0A42CFCE435F0F8EF8AF0A42CE5F038FCE433CB8DF0A42CFCE5F03BF8EE8AF0A42CFCE5F038F8E433CF89F0A42CFCE5F038CF3400CE89F0B7
:403A0000A42FFFE5F03EFEE433C98DF0A42EFEE5F039CD8AF0A42FFFE5F03EFEE43DFD33D0E0FB50070BBB000F023C19EC2CFCEF33FFEE33FEED33FD023BF1023C19EC5D80
:403A4000046005E859047003023C0F123BDA580460F6EC4860F2EC7004FDFEFF22C860DB2481C85009C39860025006023C169850CAF582E9294B4A7005AB82023C0575F0B3
:403A8000007C1A7880C3EF9BEE9AED99400DC3EF9BFFEE9AFEED99FDE842F0DC23ACF0D0E0FFD0E0FED0E0FDAB8220E7101BEB60BAEC2CFCEF33FFEE33FEED33FD023BF1B9
:403AC000E803F830E705C0F075F000EF2FFFEE33FEED33FD40B830E7C280AA74F8CC6480CCC86480C8F58204604FC3EB9FF5F0EA9E42F0E99D42F0E89C45F0603C501DE58D
:403B0000825FFFE582D313CB5BCBF42B5582FB50280ABA002409B9002008801DE5825BFBE582D313CF5FCFF4C3132F5582FF50090EBE00050DBD00010CC3EB9FF5F0EA9EFE
:403B400042F0E99D42F0E89C45F06007CC4820E701B3EC22ED33EC33600A047003BD8004ECB2E7FC2275F020800E75F010800575F0087D007E007F003392D530D503123F73
:403B8000D4EC334010EF33FFEE33FEED33FDEC33FCD5F0ED22E5F0247EA2D513CC92E7CDCEFF22EDD2E7CD33EC3392D524814006E4FFFEFDFC22FCE4CFCECDCC24E05011E6
:403BC00074FF80EDC3CC13CCCD13CDCE13CECF13CF0470F030D5DE023FD4E9D2E7C933E833F892D5EDD2E7CD33EC33FC5002B2D522EC30E7100FBF000C0EBE00080DBD00AF
:403C0000040BEB6014A2D5EB13FCED92E7FD2274FFFCFDFEFF22E480F8A2D574FF13FC7D80E480EFF920E73624F950037907E4F42402FBE582158270021583DBF6E024FBF9
:403C4000501BE96014E4F0E582158270021583E004F0B40A08E4F0D9EE7401F00A22C2D522ED33EC3392D5FA602AB4FF33EDC2E77BFF60067A3C7986E4227A3C798F20D52D
:403C8000047A3C798A224E614E002B494E46002D494E4600E47A08F0A3DAFC7B00740722C083C082ECC0E0EDC0E0EEC0E0EFC0E0EA75F010A4CAABF075F04DA42BFBE43577
:403CC000F0FCEA2410FAEB34C5FBEC34D9FCEDC2E7FF75F056A4F42411C5F0F434C58FF0A42AE5F03BE43CF020E714123D96D0E0FFD0E0FED0E0FDD0E0FC123A3E8014F4F8
:403D000004123D96D0E0FFD0E0FED0E0FDD0E0FC123935D082D083E0FAEDD2E7CD33EC332482FBE4C3CF33CFCE33CECD33CD33DBF37B0775F00A846004F0A31B0AE5F0F014
:403D4000A38FF0740AA4FFACF08EF0740AA42CFEACF050010C8DF0740AA42CFDE435F0F0A3DBDE7407223F8000004120000042C80000447A0000461C400047C35000497446
:403D800024004B1896804CBEBC205A0E1BCA6753C21C749DC5AEFB60065407601C2323123DC4EB54386009123DB0123DBF123935ECF8EDF9EEFAEFCB22EB123DBF80F154CD
:403DC0003803241C903D66FE93FC0EEE93FD0EEE930ECE93FF22BB010689828A83E0225002E722BBFE02E32289828A83E49322BB010CE58229F582E5833AF583E0225006F4
:403E0000E92582F8E622BBFE06E92582F8E222E58229F582E5833AF583E49322BB010689828A83F0225002F722BBFE01F322EF8DF0A4A8F0CF8CF0A428CE8DF0A42EFE22CB
:403E4000C5F0F8A3E028F0C5F0F8E582158270021583E038F022BB010A89828A83F0E5F0A3F0225006F709A7F01922BBFE06F3E5F009F31922EF2BFFEE3AFEED39FDEC3857
:403E8000FC22C3EF9BFFEE9AFEED99FDEC98FC22E88FF0A4CC8BF0A42CFCE98EF0A42CFC8AF0EDA42CFCEA8EF0A4CDA8F08BF0A42DCC3825F0FDE98FF0A42CCD35F0FCEB85
:403EC0008EF0A4FEA9F0EB8FF0A4CFC5F02ECD39FEE43CFCEAA42DCE35F0FDE43CFC2275F008758200EF2FFFEE33FECD33CDCC33CCC58233C5829BED9AEC99E58298400C55
:403F0000F582EE9BFEED9AFDEC99FC0FD5F0D6E4CEFBE4CDFAE4CCF9A88222B800C1B90059BA002DEC8BF084CFCECDFCE5F0CBF97818EF2FFFEE33FEED33FDEC33FCEB3309
:403F4000FB10D703994004EB99FB0FD8E5E4F9FA227818EF2FFFEE33FEED33FDEC33FCC933C910D7059BE99A4007EC9BFCE99AF90FD8E0E4C9FAE4CCFB2275F010EF2FFF55
:403F8000EE33FEED33FDCC33CCC833C810D7079BEC9AE899400AED9BFDEC9AFCE899F80FD5F0DAE4CDFBE4CCFAE4C8F922EF5BFFEE5AFEED59FDEC58FC22EF4BFFEE4AFE6F
:403FC000ED49FDEC48FC22CFF4CFCEF4CECDF4CDCCF4CC22C3E49FFFE49EFEE49DFDE49CFC22EB9FF5F0EA9E42F0E99D42F0E89C45F022E8600FECC313FCED13FDEE13FE30
:40400000EF13FFD8F122E86010ECA2E713FCED13FDEE13FEEF13FFD8F022E8600FEFC333FFEE33FEED33FDEC33FCD8F122BB010789828A830240675005E9F802438EBBFE0E
:4040400005E9F802439A89828A830243A6BB010789828A8302409F5005E9F80243E0BBFE05E9F80243EC22E0FCA3E0FDA3E0FEA3E0FF22E0F8A3E0F9A3E0FAA3E0FB22BBC2
:40408000010789828A830240735005E9F80243B6BBFE05E9F80243C389828A830243D0ECF0A3EDF0A3EEF0A3EFF022F5F0C582A4C582C5F0C583A42583F58322A42582F56B
:4040C00082E5F03583F58322E0FBA3E0FAA3E0F922F8E0FBA3A3E0F925F0F0E582158270021583E0FA38F022EBF0A3EAF0A3E9F022D083D082F8E4937012740193700DA34A
:40410000A393F8740193F5828883E4737402936860EFA3A3A380DFD083D082F8E4937012740193700DA3A393F8740193F5828883E473740293B5F0067403936860E9A3A3E6
:40414000A3A380D8E5292582F582E5283583F583B528048582292210AF06858229F52822858229F528D2AF22EC8EF0A4CCC5F0CCCDF8EFA4CEC5F02DFDE43CFCE8A42EC8E3
:40418000C5F03DFDE43CFCEFA4FFE5F028FEE43DFDE43CFC22EF4E6012EF60010EEDBB010B89828A83F0A3DFFCDEFA2289F05007F709DFFCA9F022BBFEFCF309DFFCA9F03F
:4041C00022E709F608DFFA8046E709F208DFFA803E88828C83E709F0A3DFFA8032E309F608DFFA806EE309F208DFFA806688828C83E309F0A3DFFA805A89828A83E0A3F636
:4042000008DFFA804E89828A83E0A3F208DFFA804280D280FA80C680D4805580F28029801080A680EA809A80A880DA80E280CA802988848C8589828A83E493A30586F0A3CB
:404240000586DFF5DEF3800B89828A83E493A3F608DFF9ECFAA9F0EDFB2288848C8589828A83E0A30586F0A30586DFF6DEF480E389828A83E493A3F208DFF980D688F0EFC6
:4042800060010E4E60CD88F0ED2402B4040050C3F582EB2402B4040050B9232345822390421173E709F60870FA8046E709F20870FA803E88828C83E709F0A370FA8074E3E2
:4042C00009F60870FA806CE309F20870FA806488828C83E309F0A370FA805889828A83E0A3F60870FA804C89828A83E0A3F20870FA804080D280FA80C680D4805180F2809C
:4043000027801080A680EA809A80A880DA80E280CA802788848C8589828A83E493A30586F0A3058670F5800B89828A83E493A3F60870F9ECFAA9F0EDFB2288848C85898215
:404340008A83E0A30586F0A3058670F680E589828A83E493A3F20870F980D888F0ED2402B4040050CEF582EB2402B4040050C423234582239042F373A3F8E0C5F025F0F0FA
:40438000E582158270021583E0C838F0E822E6FC08E6FD08E6FE08E6FF22E2FC08E2FD08E2FE08E2FF22E493FC740193FD740293FE740393FF22E6FB08E6F908E6FA08E653
:4043C000CBF822E2FB08E2F908E2FA08E2CBF822E493F8740193F9740293FA740393FB22ECF608EDF608EEF608EFF622ECF208EDF208EEF208EFF22290000CEEF0A3EFF04F
:4044000090000EE4F07F007E007D007C0090005D12409F900C1CE0FFEF64016003024F8090000CE0FEA3E0FF9008E875F005EF1240BCEE75F005A42583F583E0FFEF700BCF
:4044400090000CE0FEA3E0FF12826F90000CE0FEA3E0FF9008E975F005EF1240BCEE75F005A42583F583E0FFEF700B90000CE0FEA3E0FF1283CA900D1B12407390107212F8
:404480004067123E82E4123B657B007A2479747849123A3E90005D12409F90000CE0FEA3E0FF90107675F006EF1240BCEE75F006A42583F583E0FF7E0090000FEEF0A3EFBB
:4044C000F090000CE0FEA3E0FF90107775F006EF1240BCEE75F006A42583F583E0FFEFFD7C0090000FE0FEA3E0FFEF7F00FEEE4CFCEF4DFDEC123B6A90002112409F90003E
:404500000CE0FEA3E0FF90107875F006EF1240BCEE75F006A42583F583E0FF7E0090000FEEF0A3EFF090000CE0FEA3E0FF90107975F006EF1240BCEE75F006A42583F5837C
:40454000E0FFEFFD7C0090000FE0FEA3E0FFEF7F00FEEE4CFCEF4DFDEC123B6A90002512409F90000CE0FEA3E0FF90107A75F006EF1240BCEE75F006A42583F583E0FF7ED9
:404580000090000FEEF0A3EFF090000CE0FEA3E0FF90107B75F006EF1240BCEE75F006A42583F583E0FFEFFD7C0090000FE0FEA3E0FFEF7F00FEEE4CFCEF4DFDEC123B6A9C
:4045C00090002912409F7F007E007D007C0090003D12409F90000CE0FEA3E0FF900CB575F006EF1240BCEE75F006A42583F583E0FF7E0090000FEEF0A3EFF090000CE0FEB5
:40460000A3E0FF900CB675F006EF1240BCEE75F006A42583F583E0FFEFFD7C0090000FE0FEA3E0FFEF7F00FEEE4CFCEF4DFDEC123B6A7B547AA0790B7839123935900041EE
:4046400012409F90004112406712B21E7BA67A0A7986783E123ADB6010400E7F007E007D007C0090004112409F90000CE0FEA3E0FF900CB775F006EF1240BCEE75F006A432
:404680002583F583E0FF7E0090000FEEF0A3EFF090000CE0FEA3E0FF900CB875F006EF1240BCEE75F006A42583F583E0FFEFFD7C0090000FE0FEA3E0FFEF7F00FEEE4CFCC1
:4046C000EF4DFDEC123B6A7B547AA0790B783912393590004512409F90004512406712B21E7BA67A0A7986783E123ADB6010400E7F007E007D007C0090004512409F90007F
:404700000CE0FEA3E0FF900CB975F006EF1240BCEE75F006A42583F583E0FF7E0090000FEEF0A3EFF090000CE0FEA3E0FF900CBA75F006EF1240BCEE75F006A42583F58300
:40474000E0FFEFFD7C0090000FE0FEA3E0FFEF7F00FEEE4CFCEF4DFDEC123B6A7B547AA0790B783912393590004912409F90004912406712B21E7BA67A0A7986783E123AF3
:40478000DB6010400E7F007E007D007C0090004912409F7B017A007921128B42900CA512406790004D12409F900CA912406790005112409F900CAD12406790005512409FC1
:4047C000900CB112406790005912409F90005512406790004D124073123935C004C005C006C007900059124067900051124073123935D003D002D001D0001238407B007A76
:404800000079007840123935900021124073123840C004C005C006C007900055124067123B54A804A905AA06AB07D007D006D005D004123935C004C005C006C007900059E1
:40484000124067900055124073123935C004C005C006C00790005112406790004D124073123935A804A905AA06AB07D007D006D005D0041238447B007A0079007840123972
:4048800035900025124073123840900051124073123935A804A905AA06AB07D007D006D005D0041238447B827A5179C3784012393590002D12409F90005912406790005588
:4048C000124073123935C004C005C006C00790005112406790004D124073123935A804A905AA06AB07D007D006D005D0041238447B007A0079007840123935900025124054
:404900007312384090004D124073123935C004C005C006C00790005512406790004D124073123935C004C005C006C007900059124067900051124073123935D003D002D02F
:4049400001D0001238407B007A0079007840123935900021124073123840900059124073123935A804A905AA06AB07D007D006D005D004123844C004C005C006C0079000C2
:4049800051124067900051124073123935A804A905AA06AB077F007E007D007C3F123840C004C005C006C007900055124067900055124073123935A804A905AA06AB07D0E2
:4049C00007D006D005D0041238407B007A0079007840123935900029124073123840C004C005C006C0077F007E007D007C40900051124073123935A804A905AA06AB07D0FB
:404A000007D006D005D004123935A804A905AA06AB07D007D006D005D0041238407B827A5179C3784012393590003112409F90005512406790004D124073123935C004C0A2
:404A400005C006C007900059124067900051124073123935D003D002D001D0001238407B007A0079007840123935900021124073123840C004C005C006C00790004D124021
:404A800067123B54A804A905AA06AB07D007D006D005D004123935C004C005C006C007900059124067900055124073123935C004C005C006C00790005112406790004D12DB
:404AC0004073123935A804A905AA06AB07D007D006D005D0041238447B007A0079007840123935900025124073123840900059124073123935A804A905AA06AB07D007D0A8
:404B000006D005D004123844C004C005C006C007900051124067900051124073123935A804A905AA06AB077F007E007D007C3F123840C004C005C006C00790005512406733
:404B4000900055124073123935A804A905AA06AB07D007D006D005D0041238407B007A0079007840123935900029124073123840C004C005C006C0077F007E007D007C4075
:404B8000900055124073123935A804A905AA06AB07D007D006D005D004123935A804A905AA06AB07D007D006D005D0041238407B827A5179C3784012393590003512409FAB
:404BC000900059124067900055124073123935C004C005C006C00790005112406790004D124073123935A804A905AA06AB07D007D006D005D0041238447B007A0079007891
:404C000040123935900025124073123840900055124073123935C004C005C006C00790005512406790004D124073123935C004C005C006C0079000591240679000511240C5
:404C400073123935D003D002D001D0001238407B007A0079007840123935900021124073123840900051124073123935A804A905AA06AB07D007D006D005D0041238447B8A
:404C8000827A5179C3784012393590003912409F900045124067900055124073123935C004C005C006C007900041124067900051124073123935A804A905AA06AB07D00768
:404CC000D006D005D004123844C004C005C006C007900049124067900059124073123935A804A905AA06AB07D007D006D005D004123844123B547B007A007900783F123920
:404D00003590002D12407312384090001112409F900045124067900059124073123935C004C005C006C007900049124067900055124073123935D003D002D001D000123882
:404D400040C004C005C006C00790004112406790004D124073123935A804A905AA06AB07D007D006D005D0041238447B007A007900783F123935900031124073123840904C
:404D8000001512409F900049124067900051124073123935C004C005C006C007900041124067900059124073123935D003D002D001D000123840C004C005C006C0079000F1
:404DC0004512406790004D124073123935A804A905AA06AB07D007D006D005D0041238447B007A007900783F12393590003512407312384090001912409F90004112406716
:404E0000900055124073123935C004C005C006C007900045124067900051124073123935D003D002D001D000123840C004C005C006C00790004912406790004D1240731252
:404E40003935A804A905AA06AB07D007D006D005D0041238447B007A007900783F12393590003912407312384090001D12409F90004D124067C004C005C006C00790005D30
:404E8000124067900011124073123935A804A905AA06AB07D007D006D005D00412384490004D12409F900051124067C004C005C006C00790005D1240679000151240731213
:404EC0003935A804A905AA06AB07D007D006D005D00412384490005112409F900055124067C004C005C006C00790005D124067900019124073123935A804A905AA06AB07CE
:404F0000D007D006D005D00412384490005512409F900059124067C004C005C006C00790005D12406790001D124073123935A804A905AA06AB07D007D006D005D00412380B
:404F40004490005912409F7B017A00794D127E0E90004D124067900CA512409F900051124067900CA912409F900055124067900CAD12409F900059124067900CB112409F69
:404F80002230202D3E204E6F6E650A31202D3E204C6F77202825752075732064656C617920666F72206561636820382D6269742072656769737465722072656164290A32B1
:404FC000202D3E2048696768202825752075732064656C617920666F72206561636820382D6269742072656769737465722072656164290A00506F72742025752049443AD7
:40500000002575202D204465766963652049443A002575202D20494D5520256420636F6E66696775726174696F6E3A002575202D2053504920726561642064656C61793AAD
:4050400000204E6F6E6500204C6F7700204869676800000D0A004669726D776172652076657273696F6E3A2000494D55626F617264207620312E342E31000D0A0D0A0044AD
:40508000455649434520494E464F0D0A0049443A2025640D0A004C6F7720706173732066696C746572206672657175656E637920666F7220616363656C65726F6D65746589
:4050C00072733A20313020487A0D0A00494D5520436F6E6E65637465643A2025640D0A00494D557320434F4E46494755524154494F4E0D0A00496D75202564200D0A0949B5
:40510000443A2025640D0A0009416363656C65726F6D65746572733A20005945530D0A004E4F0D0A00094779726F73636F7065733A2000094D61676E65746F6D65746572E2
:40514000733A2000095175617465726E696F6E3A20000954656D70657261747572653A200054696D65206265747765656E2074776F2072656164696E67206379636C657338
:405180003A20252E3366206D730064656275673A20256C640053454E534F525320494E464F0D0A00094163633A2025640925640925640D0A00094779726F3A2025640925DA
:4051C000640925640D0A00094D61673A2025640925640925640D0A0009517561743A20252E336609252E336609252E336609252E33660D0A000954656D7065726174757254
:40520000653A2025640D0A0000000000000000000000000000000000000000000000000000000000000000000000000000000000000000000000000000000000000000000F
:40524000000000000000000000000000000000000000000000000000000000000000000000000000000000000000000000000000000000000000000000000000000000002E
:4052800000000000000000000000000000000000000000000000000000000000000000000000000000000000000000000000000000000000000000000000000000000000EE
:4052C00000000000000000000000000000000000000000000000000000000000000000000000000000000000000000000000000000000000000000000000000000000000AE
:40530000000000000000000000000000000000000000000000000000000000000000000000000000000000000000000000000000000000000000000000000000000000006D
:40534000000000000000000000000000000000000000000000000000000000000000000000000000000000000000000000000000000000000000000000000000000000002D
:4053800000000000000000000000000000000000000000000000000000000000000000000000000000000000000000000000000000000000000000000000000000000000ED
:4053C00000000000000000000000000000000000000000000000000000000000000000000000000000000000000000000000000000000000000000000000000000000000AD
:40540000000000000000000000000000000000000000000000000000000000000000000000000000000000000000000000000000000000000000000000000000000000006C
:40544000000000000000000000000000000000000000000000000000000000000000000000000000000000000000000000000000000000000000000000000000000000002C
:4054800000000000000000000000000000000000000000000000000000000000000000000000000000000000000000000000000000000000000000000000000000000000EC
:4054C00000000000000000000000000000000000000000000000000000000000000000000000000000000000000000000000000000000000000000000000000000000000AC
:40550000000000000000000000000000000000000000000000000000000000000000000000000000000000000000000000000000000000000000000000000000000000006B
:40554000000000000000000000000000000000000000000000000000000000000000000000000000000000000000000000000000000000000000000000000000000000002B
:4055800000000000000000000000000000000000000000000000000000000000000000000000000000000000000000000000000000000000000000000000000000000000EB
:4055C00000000000000000000000000000000000000000000000000000000000000000000000000000000000000000000000000000000000000000000000000000000000AB
:40560000000000000000000000000000000000000000000000000000000000000000000000000000000000000000000000000000000000000000000000000000000000006A
:40564000000000000000000000000000000000000000000000000000000000000000000000000000000000000000000000000000000000000000000000000000000000002A
:4056800000000000000000000000000000000000000000000000000000000000000000000000000000000000000000000000000000000000000000000000000000000000EA
:4056C00000000000000000000000000000000000000000000000000000000000000000000000000000000000000000000000000000000000000000000000000000000000AA
:405700000000000000000000000000000000000000000000000000000000000000000000000000000000000000000000000000000000000000000000000000000000000069
:405740000000000000000000000000000000000000000000000000000000000000000000000000000000000000000000000000000000000000000000000000000000000029
:4057800000000000000000000000000000000000000000000000000000000000000000000000000000000000000000000000000000000000000000000000000000000000E9
:4057C00000000000000000000000000000000000000000000000000000000000000000000000000000000000000000000000000000000000000000000000000000000000A9
:405800000000000000000000000000000000000000000000000000000000000000000000000000000000000000000000000000000000000000000000000000000000000068
:405840000000000000000000000000000000000000000000000000000000000000000000000000000000000000000000000000000000000000000000000000000000000028
:4058800000000000000000000000000000000000000000000000000000000000000000000000000000000000000000000000000000000000000000000000000000000000E8
:4058C00000000000000000000000000000000000000000000000000000000000000000000000000000000000000000000000000000000000000000000000000000000000A8
:405900000000000000000000000000000000000000000000000000000000000000000000000000000000000000000000000000000000000000000000000000000000000067
:405940000000000000000000000000000000000000000000000000000000000000000000000000000000000000000000000000000000000000000000000000000000000027
:405980000000000000000000000000000000000000000000000000000000000000000000000000000000004E756D626572206F6620636F6E6E656374656420494D55733AFE
:4059C0000000000000000000000000004D61672063616C20706172616D65746572733A000000000000000000000000000000000000000000000000000000000000000000B4
:405A00000000000000000000000000000000000000000000000000000000000000000000000000000000000000000000000000000000000000000000000000000000000066
:405A40000000000000000000000000000000000000000000000000000000000000000000000000000000000000000000000000000000000000000000000000000000000026
:405A80000000000000000000000000000000000000000000000000000000000000000000000000000000000000009000041240E89008E5E0FFEF64FA700302616B7BFF7A3A
:405AC000507952C003C002C0019000041240C8A801AC02AD03D001D002D00312435B9000041240C8C003C002C0017BFF7A5079539008B31240E8D001D002D00312A0F59034
:405B000000041240C8C003C002C0017BFF7A5079569008B31240E8D001D002D00312A0F59000041240C8C003C002C0017BFF7A5079699008B31240E8D001D002D00312A085
:405B4000F59000041240C8C003C002C0017BFF7A50797A9008B31240E8D001D002D00312A0F59000041240C8C003C002C0017BFF7A50797F9008B31240E8D001D002D00338
:405B800012A0F57B017A007909C003C002C0017BFF7A50798D9008B31240E89008E5E0FF7E009008B6EEF0A3EFF0D001D002D0031267189000041240C8C003C002C0017BB3
:405BC000017A0079099008B31240E8D001D002D00312A0F59000041240C8C003C002C0017BFF7A5079969008B31240E8D001D002D00312A0F57B017A007909C003C002C060
:405C0000017BFF7A5079CC9008B31240E8900C1CE0FF7E009008B6EEF0A3EFF0D001D002D0031267189000041240C8C003C002C0017B017A0079099008B31240E8D001D0F9
:405C400002D00312A0F59000041240C8C003C002C0017BFF7A5079539008B31240E8D001D002D00312A0F59000041240C8C003C002C0017BFF7A5079E09008B31240E8D01C
:405C800001D002D00312A0F5900007E4F0A3E4F0900C1CE0FF7E00900007E0FCA3E0FDC3ED9FEE6480F8EC64809840030260097B017A007909C003C002C0017BFF7A507903
:405CC000F59008B31240E8900007E0FEA3E0FF9008B6EEF0A3EFF0900007E0FEA3E0FF743D2FF58274093EF583E0FF7E009008B8EEF0A3EFF0D001D002D003126718900060
:405D0000041240C8C003C002C0017B017A0079099008B31240E8D001D002D00312A0F57B017A007909C003C002C0017BFF7A5179089008B31240E8D001D002D003126718D5
:405D4000900007E0FEA3E0FF743D2FF58274093EF583E0FFEF75F005A424E8F582E43408F583E0FFEF60237B017A007909C003C002C0017BFF7A51791A9008B31240E8D06F
:405D800001D002D00312A0F580217B017A007909C003C002C0017BFF7A5179209008B31240E8D001D002D00312A0F57B017A007909C003C002C0017BFF7A5179259008B3CB
:405DC0001240E8D001D002D00312A0F5900007E0FEA3E0FF743D2FF58274093EF583E0FFEF75F005A424E9F582E43408F583E0FFEF60237B017A007909C003C002C0017B49
:405E0000FF7A51791A9008B31240E8D001D002D00312A0F580217B017A007909C003C002C0017BFF7A5179209008B31240E8D001D002D00312A0F57B017A007909C003C089
:405E400002C0017BFF7A5179339008B31240E8D001D002D00312A0F5900007E0FEA3E0FF743D2FF58274093EF583E0FFEF75F005A424EAF582E43408F583E0FFEF60237B86
:405E8000017A007909C003C002C0017BFF7A51791A9008B31240E8D001D002D00312A0F580217B017A007909C003C002C0017BFF7A5179209008B31240E8D001D002D003ED
:405EC00012A0F57B017A007909C003C002C0017BFF7A5179449008B31240E8D001D002D00312A0F5900007E0FEA3E0FF743D2FF58274093EF583E0FFEF75F005A424EBF538
:405F000082E43408F583E0FFEF60237B017A007909C003C002C0017BFF7A51791A9008B31240E8D001D002D00312A0F580217B017A007909C003C002C0017BFF7A51792081
:405F40009008B31240E8D001D002D00312A0F57B017A007909C003C002C0017BFF7A5179529008B31240E8D001D002D00312A0F5900007E0FEA3E0FF743D2FF58274093E06
:405F8000F583E0FFEF75F005A424ECF582E43408F583E0FFEF60237B017A007909C003C002C0017BFF7A51791A9008B31240E8D001D002D00312A0F580217B017A007909CC
:405FC000C003C002C0017BFF7A5179209008B31240E8D001D002D00312A0F59000041240C8C003C002C0017B017A0079099008B31240E8D001D002D00312A0F5900007E452
:4060000075F001123E40025C909000041240C8C003C002C0017BFF7A5079539008B31240E8D001D002D00312A0F57B017A007909C003C002C0017BFF7A5179619008B3129C
:4060400040E8900D1B124073901072124067123E82E4123B657B007A00797A7844123A3E9008B612409FD001D002D0031267189000041240C8C003C002C0017B017A007971
:40608000099008B31240E8D001D002D00312A0F59000041240C8C003C002C0017BFF7A5079539008B31240E8D001D002D00312A0F59000041240C8C003C002C0017BFF7AA7
:4060C0005079539008B31240E8D001D002D00312A0F57B017A007909C003C002C0017BFF7A51798A9008B31240E8900D1B124073901072124067123E829008B612409FD02E
:4061000001D002D0031267189000041240C8C003C002C0017B017A0079099008B31240E8D001D002D00312A0F59000041240C8C003C002C0017BFF7A5079539008B3124079
:40614000E8D001D002D00312A0F59000041240C8C003C002C0017BFF7A5079539008B31240E8D001D002D00312A0F5229000041240E87BFF7A507952C003C002C00190009F
:40618000041240C8A801AC02AD03D001D002D00312435B9000041240C8C003C002C0017BFF7A5079539008B31240E8D001D002D00312A0F59000041240C8C003C002C001FA
:4061C0007BFF7A5179959008B31240E8D001D002D00312A0F5900007E4F0A3E4F0900C1CE0FF7E00900007E0FCA3E0FDC3ED9FEE6480F8EC64809840030266B27B017A00EC
:406200007909C003C002C0017BFF7A5079F59008B31240E8900007E0FEA3E0FF9008B6EEF0A3EFF0900007E0FEA3E0FF743D2FF58274093EF583E0FF7E009008B8EEF0A30B
:40624000EFF0D001D002D0031267189000041240C8C003C002C0017B017A0079099008B31240E8D001D002D00312A0F5900007E0FEA3E0FF743D2FF58274093EF583E0FFCA
:40628000EF75F005A424E8F582E43408F583E0FFEF70030263507B017A007909C003C002C0017BFF7A5179A49008B31240E8900007E0FEA3E0FF9009A875F025EF1240BC6C
:4062C000EE75F025A42583F583E0FEA3E0FF9008B6EEF0A3EFF0900007E0FEA3E0FF9009AA75F025EF1240BCEE75F025A42583F583E0FEA3E0FF9008B8EEF0A3EFF09000B7
:4063000007E0FEA3E0FF9009AC75F025EF1240BCEE75F025A42583F583E0FEA3E0FF9008BAEEF0A3EFF0D001D002D0031267189000041240C8C003C002C0017B017A007972
:40634000099008B31240E8D001D002D00312A0F5900007E0FEA3E0FF743D2FF58274093EF583E0FFEF75F005A424E9F582E43408F583E0FFEF70030264347B017A007909A6
:40638000C003C002C0017BFF7A5179B59008B31240E8900007E0FEA3E0FF9009AE75F025EF1240BCEE75F025A42583F583E0FEA3E0FF9008B6EEF0A3EFF0900007E0FEA378
:4063C000E0FF9009B075F025EF1240BCEE75F025A42583F583E0FEA3E0FF9008B8EEF0A3EFF0900007E0FEA3E0FF9009B275F025EF1240BCEE75F025A42583F583E0FEA31C
:40640000E0FF9008BAEEF0A3EFF0D001D002D0031267189000041240C8C003C002C0017B017A0079099008B31240E8D001D002D00312A0F5900007E0FEA3E0FF743D2FF5EA
:406440008274093EF583E0FFEF75F005A424EAF582E43408F583E0FFEF70030265187B017A007909C003C002C0017BFF7A5179C79008B31240E8900007E0FEA3E0FF900956
:40648000B475F025EF1240BCEE75F025A42583F583E0FEA3E0FF9008B6EEF0A3EFF0900007E0FEA3E0FF9009B675F025EF1240BCEE75F025A42583F583E0FEA3E0FF900856
:4064C000B8EEF0A3EFF0900007E0FEA3E0FF9009B875F025EF1240BCEE75F025A42583F583E0FEA3E0FF9008BAEEF0A3EFF0D001D002D0031267189000041240C8C003C02F
:4065000002C0017B017A0079099008B31240E8D001D002D00312A0F5900007E0FEA3E0FF743D2FF58274093EF583E0FFEF75F005A424EBF582E43408F583E0FFEF700302C0
:4065400066147B017A007909C003C002C0017BFF7A5179D89008B31240E8900007E0FEA3E0FF9009BA75F025EF1240BCEE75F025A42583F5831240679008B612409F900033
:4065800007E0FEA3E0FF9009BE75F025EF1240BCEE75F025A42583F5831240679008BA12409F900007E0FEA3E0FF9009C275F025EF1240BCEE75F025A42583F58312406790
:4065C0009008BE12409F900007E0FEA3E0FF9009C675F025EF1240BCEE75F025A42583F5831240679008C212409FD001D002D0031267189000041240C8C003C002C0017BC1
:40660000017A0079099008B31240E8D001D002D00312A0F5900007E0FEA3E0FF743D2FF58274093EF583E0FFEF75F005A424ECF582E43408F583E0FFEF606A7B017A007938
:4066400009C003C002C0017BFF7A5179F59008B31240E8900007E0FEA3E0FF9009CA75F025EF1240BCEE75F025A42583F583E0FEA3E0FF9008B6EEF0A3EFF0D001D002D0F5
:40668000031267189000041240C8C003C002C0017B017A0079099008B31240E8D001D002D00312A0F5900007E475F001123E400261DD22E51A24B3F582E43408F583E0059B
:4066C0001A229008B03008039008B3E475F0011240D1023DD62001E97F2ED2018018EF540F2490D43440D4FF30050BEF24BFB41A0050032461FFE51B6002151B051EE51E5C
:406700007002051D30080E9008B0E475F0011240D1EF023E1C02ADF27403D2088003E4C208F51A9008B01240E8E4F51BF51DF51EE51B60077F201266F680F5751CFFC20275
:40674000C201C203C204C206C207C2091266C2FF700D3008057F00126707AF1EAE1D22B4255FC2D5C2051266C2FF24D0B40A00501A75F00A781B30D50508B6FF0106C6A49E
:4067800026F620D5047002D20480D924CFB41A00EF5004C2E5D2050269F9D20280C6D20180C0D20380BCD2D580BAD20680B47F201266F62003077401B51B0040F11266B33A
:4067C000FF1266F6026730D209D20780951266B3FB1266B3FA1266B3F94A4B700679F77A6A7BFF20032EE51B602A7E008E82758300123DEF60060EEE651C70F0C2D5EBC05E
:40680000E0EAC0E0E9C0E0EE126A5AD0E0F9D0E0FAD0E0FB123DD6FF60AAEBC0E0EAC0E0E9C0E01266F6D0E02401F9D0E03400FAD0E0FBE51C0460DCD51CD98087D20380AB
:40684000A2126A3C60F7E51C700104123C24A91C600DE51C600914F51C126AE4EF60F3EA30E702F404C3995079EAF4251C0430E701E404F51C800D126A3C60C1EA051C2532
:406880001C123C24EA9008DFF030E701E4251C04D51C0420060114126A5AE4C0E0126AE49008DFE0601320E70714F01266DE802204F0D0E014C0E07F001266DEE51C600765
:4068C0001266D5151C800B3006031266D5D0E0026730D0E00480C4126A3C609EE51C04123C249008DFEAF0E51C2006026001042404126A5A74FF04C0E0126AE41266DEE50C
:406900001C20060260031266D5D0E0B51CE87F451266E89008DFE07F2B30E7047F2DF404C0E01266F6D0E075F00A84C0F01266DFD0E01266DF026730791080027908C20769
:40694000C2098008D2D5790A8004790AC2D5E51C047002F51CE4FAFDFEFF1266B3FC7B082002131266B3FD7B1030010A1266B3FE1266B3FF7B20EC3382D592D55013C3E4FA
:406980003001069FFFE49EFEE42002039DFDE49CFCE4CBF8C202EC700CCFCECDCCE824F8F870F38017C3EF33FFEE33FEED33FDEC33FCEB33FB994002FB0FD8E9EB30020548
:4069C000F8D0E0C448B202C0E00AEC4D4E4F78207B0070C2EAB51C0040BCC0E0126A5CD0F0D0E0200204C4C0E0C4B202C0F01266DFD0F0D5F0EB0267301240F167CD536986
:406A00003858679E4C679A42693C4F69444469444967B343694A5568774668D7456841476B175067A22D67A62E67C92B67AA2367C7206B002A676248000067C1E51CB4FFB7
:406A400003751C061266B3FC1266B3FD1266B3FE1266B3FF9008D8023C61790AA2D5200414300609B910020404B9080104A2D52007025001042003689203B51B005034C098
:406A8000E07F203004197F30A20372077206500F126AB3C203C207C206C2097F30800F300603E9C0E01266F6300603D0E0F9D0E0B51BCC3006177F30B9100C1266F67F5864
:406AC0003005077F788003B908031266F63003057F2D0266F67F202009F87F2B2007F322920380CF7F00B40700500B24D8F582E43408F583E0FF22286E756C6C2900D20261
:406B00001266B33002F8C202781B30D50108F60267622D504349581266B32403B405004001E4906B12931266E7743A1266E7D204751B040269389000037401F0900004E4C0
:406B4000F09000057401F090000674A1F0900002E4F0900C1CE0FF900002E0FEEEC39F4003026F51900164743AF0900002E0FF743D2FF582E43409F583E0FFEF75F005A4FE
:406B800024E8F582E43408F583E0FFEF607F900002E0FF75F025EF9009A81240BCE0FEA3E0FF900003E0FD74642DF582E43401F583EEF0A3EFF0900002E0FF75F025EF901D
:406BC00009AA1240BCE0FEA3E0FF900003E0FD74662DF582E43401F583EEF0A3EFF0900002E0FF75F025EF9009AC1240BCE0FEA3E0FF900003E0FD74682DF582E43401F5FA
:406C000083EEF0A3EFF0900003E02406F0900002E0FF743D2FF582E43409F583E0FFEF75F005A424E9F582E43408F583E0FFEF607F900002E0FF75F025EF9009AE1240BC9F
:406C4000E0FEA3E0FF900003E0FD74642DF582E43401F583EEF0A3EFF0900002E0FF75F025EF9009B01240BCE0FEA3E0FF900003E0FD74662DF582E43401F583EEF0A3EF47
:406C8000F0900002E0FF75F025EF9009B21240BCE0FEA3E0FF900003E0FD74682DF582E43401F583EEF0A3EFF0900003E02406F0900002E0FF743D2FF582E43409F583E092
:406CC000FFEF75F005A424EAF582E43408F583E0FFEF607F900002E0FF75F025EF9009B41240BCE0FEA3E0FF900003E0FD74642DF582E43401F583EEF0A3EFF0900002E0DA
:406D0000FF75F025EF9009B61240BCE0FEA3E0FF900003E0FD74662DF582E43401F583EEF0A3EFF0900002E0FF75F025EF9009B81240BCE0FEA3E0FF900003E0FD74682D1D
:406D4000F582E43401F583EEF0A3EFF0900003E02406F0900002E0FF743D2FF582E43409F583E0FFEF75F005A424EBF582E43408F583E0FFEF7003026E11900002E0FF751B
:406D8000F025EF9009BA1240BC124067900003E0FB74642BF582E43401F58312409F900002E0FF75F025EF9009BE1240BC124067900003E0FB74682BF582E43401F58312B4
:406DC000409F900002E0FF75F025EF9009C21240BC124067900003E0FB746C2BF582E43401F58312409F900002E0FF75F025EF9009C61240BC124067900003E0FB74702BA9
:406E0000F582E43401F58312409F900003E02410F0900002E0FF743D2FF582E43409F583E0FFEF75F005A424ECF582E43408F583E0FFEF602F900002E0FF75F025EF900986
:406E4000CA1240BCE0FEA3E0FF900003E0FD74642DF582E43401F583EEF0A3EFF0900003E02402F0900002E0FF743D2FF582E43409F583E0FFEF25E02450F582E43410F538
:406E800083E0FEA3E0FF74632FF58274013EF583743AF09000037401F0900004E4F0900002E0FF743D2FF582E43409F583E0FFEF25E02450F582E43410F583E0FEA3E0FF2A
:406EC000900004E0FD7C00C3ED9FEE6480F8EC648098503D900004E0FF74642FF582E43401F583E0FF900004E0FEEEFD7C00900005E0FEEEFB7A00EB2DFDEA3CFC74062DA9
:406F0000F58274003CF583EFF0900004E004F0808D900002E0FF743D2FF582E43409F583E0FFEF25E02450F582E43410F583E0FEA3E0FF900005E02FF07E007F167D007BA0
:406F4000017A017964124195900002E004F0026B527B017A0079069010DCE0FEA3E0FFEF14FD12A9AC9010DCE0FCA3E0FD74052DF58274003CF583EFF07B017A00790690F2
:406F800010DCE0FCA3E0FD129D0A22900002E4F0A3E4F0900004E4F0A3E4F0900006E4F0A3E4F0900008E4F0A3E4F090164FE4F0900C1CE0FF90164FE0FEEEC39F40030266
:406FC00073B490164FE0FF743D2FF582E43409F583E0FF7E0012A53690164FE0FF743D2FF582E43409F583E0FF7E00129363900006E4F0A3E4F0900006E0FEA3E0FFC3EFAA
:407000009403EE940040030270D8900006E0FEA3E0FFEF25E0FFEE33FE90164FE0FD743D2DF582E43409F583E0FDED75F006A42476F582E43410F583E5822FF582E5833EA5
:40704000F583E0FF7E00900002EEF0A3EFF0900006E0FEA3E0FFEF25E0FFEE33FE90164FE0FD743D2DF582E43409F583E0FDED75F006A42477F582E43410F583E5822FF56B
:4070800082E5833EF583E0FFEFFD7C00900002E0FEA3E0FFEF7F00FEEE4CFCEF4DFD900006E0FEA3E0FFEF25E0FFEE33FE90164FE0FB75F025EB900DDC1240BCE5822FF5BD
:4070C00082E5833EF583ECF0A3EDF0900006E475F001123E40026FF6900006E4F0A3E4F0900006E0FEA3E0FFC3EF9403EE940040030271C2900006E0FEA3E0FFEF25E0FFBA
:40710000EE33FE90164FE0FD743D2DF582E43409F583E0FDED75F006A424B5F582E4340CF583E5822FF582E5833EF583E0FF7E00900002EEF0A3EFF0900006E0FEA3E0FF3B
:40714000EF25E0FFEE33FE90164FE0FD743D2DF582E43409F583E0FDED75F006A424B6F582E4340CF583E5822FF582E5833EF583E0FFEFFD7C00900002E0FEA3E0FFEF7FA5
:4071800000FEEE4CFCEF4DFD900006E0FEA3E0FFEF25E0FFEE33FE90164FE0FB75F025EB900DE21240BCE5822FF582E5833EF583ECF0A3EDF0900006E475F001123E40028F
:4071C00070E0900006E4F0A3E4F0900006E0FEA3E0FFC3EF9403EE940040030272AC900006E0FEA3E0FFEF25E0FFEE33FE90164FE0FD743D2DF582E43409F583E0FDED7533
:40720000F006A4241DF582E4340CF583E5822FF582E5833EF583E0FF7E00900002EEF0A3EFF0900006E0FEA3E0FFEF25E0FFEE33FE90164FE0FD743D2DF582E43409F5831E
